{
  "_format": "hh-sol-artifact-1",
  "contractName": "zkHangman",
  "sourceName": "contracts/zkHangman.sol",
  "abi": [
    {
      "inputs": [
        {
          "internalType": "address",
          "name": "_player",
          "type": "address"
        },
        {
          "internalType": "address",
          "name": "_initVerifier",
          "type": "address"
        },
        {
          "internalType": "address",
          "name": "_guessVerifier",
          "type": "address"
        },
        {
          "internalType": "uint256[2]",
          "name": "_a",
          "type": "uint256[2]"
        },
        {
          "internalType": "uint256[2][2]",
          "name": "_b",
          "type": "uint256[2][2]"
        },
        {
          "internalType": "uint256[2]",
          "name": "_c",
          "type": "uint256[2]"
        },
        {
          "internalType": "uint256[26]",
          "name": "_input",
          "type": "uint256[26]"
        },
        {
          "internalType": "uint256",
          "name": "_totalChars",
          "type": "uint256"
        }
      ],
      "stateMutability": "nonpayable",
      "type": "constructor"
    },
    {
      "anonymous": false,
      "inputs": [
        {
          "indexed": false,
          "internalType": "uint256",
          "name": "nextTurn",
          "type": "uint256"
        }
      ],
      "name": "NextTurn",
      "type": "event"
    },
    {
      "inputs": [
        {
          "internalType": "uint256",
          "name": "",
          "type": "uint256"
        }
      ],
      "name": "characterHashes",
      "outputs": [
        {
          "internalType": "uint256",
          "name": "",
          "type": "uint256"
        }
      ],
      "stateMutability": "view",
      "type": "function"
    },
    {
      "inputs": [],
      "name": "correctGuesses",
      "outputs": [
        {
          "internalType": "uint256",
          "name": "",
          "type": "uint256"
        }
      ],
      "stateMutability": "view",
      "type": "function"
    },
    {
      "inputs": [],
      "name": "gameOver",
      "outputs": [
        {
          "internalType": "bool",
          "name": "",
          "type": "bool"
        }
      ],
      "stateMutability": "view",
      "type": "function"
    },
    {
      "inputs": [],
      "name": "guessVerifier",
      "outputs": [
        {
          "internalType": "contract GuessVerifier",
          "name": "",
          "type": "address"
        }
      ],
      "stateMutability": "view",
      "type": "function"
    },
    {
      "inputs": [
        {
          "internalType": "uint256",
          "name": "",
          "type": "uint256"
        }
      ],
      "name": "guesses",
      "outputs": [
        {
          "internalType": "uint256",
          "name": "",
          "type": "uint256"
        }
      ],
      "stateMutability": "view",
      "type": "function"
    },
    {
      "inputs": [],
      "name": "host",
      "outputs": [
        {
          "internalType": "address",
          "name": "",
          "type": "address"
        }
      ],
      "stateMutability": "view",
      "type": "function"
    },
    {
      "inputs": [],
      "name": "initVerifier",
      "outputs": [
        {
          "internalType": "contract InitVerifier",
          "name": "",
          "type": "address"
        }
      ],
      "stateMutability": "view",
      "type": "function"
    },
    {
      "inputs": [],
      "name": "player",
      "outputs": [
        {
          "internalType": "address",
          "name": "",
          "type": "address"
        }
      ],
      "stateMutability": "view",
      "type": "function"
    },
    {
      "inputs": [
        {
          "internalType": "uint256",
          "name": "_guess",
          "type": "uint256"
        }
      ],
      "name": "playerGuess",
      "outputs": [],
      "stateMutability": "nonpayable",
      "type": "function"
    },
    {
      "inputs": [],
      "name": "playerLives",
      "outputs": [
        {
          "internalType": "uint256",
          "name": "",
          "type": "uint256"
        }
      ],
      "stateMutability": "view",
      "type": "function"
    },
    {
      "inputs": [
        {
          "internalType": "uint256[2]",
          "name": "_a",
          "type": "uint256[2]"
        },
        {
          "internalType": "uint256[2][2]",
          "name": "_b",
          "type": "uint256[2][2]"
        },
        {
          "internalType": "uint256[2]",
          "name": "_c",
          "type": "uint256[2]"
        },
        {
          "internalType": "uint256[3]",
          "name": "_input",
          "type": "uint256[3]"
        }
      ],
      "name": "processGuess",
      "outputs": [],
      "stateMutability": "nonpayable",
      "type": "function"
    },
    {
      "inputs": [
        {
          "internalType": "uint256",
          "name": "",
          "type": "uint256"
        }
      ],
      "name": "revealedChars",
      "outputs": [
        {
          "internalType": "uint256",
          "name": "",
          "type": "uint256"
        }
      ],
      "stateMutability": "view",
      "type": "function"
    },
    {
      "inputs": [],
      "name": "secretHash",
      "outputs": [
        {
          "internalType": "uint256",
          "name": "",
          "type": "uint256"
        }
      ],
      "stateMutability": "view",
      "type": "function"
    },
    {
      "inputs": [],
      "name": "totalChars",
      "outputs": [
        {
          "internalType": "uint256",
          "name": "",
          "type": "uint256"
        }
      ],
      "stateMutability": "view",
      "type": "function"
    },
    {
      "inputs": [],
      "name": "turn",
      "outputs": [
        {
          "internalType": "uint256",
          "name": "",
          "type": "uint256"
        }
      ],
      "stateMutability": "view",
      "type": "function"
    }
  ],
  "bytecode": "0x608060405260066004553480156200001657600080fd5b50604051620011b7380380620011b7833981016040819052620000399162000447565b60028054326001600160a01b0319918216179091556003805482166001600160a01b038b8116919091179091556000805483168a8316179055600180549092169088161790556200008e85858585856200009c565b5050505050505050620006c3565b60095460ff1615620000e85760405162461bcd60e51b815260206004820152601060248201526f3a34329033b0b6b29034b99037bb32b960811b60448201526064015b60405180910390fd5b60075415620001295760405162461bcd60e51b815260206004820152600c60248201526b34b73b30b634b2103a3ab93760a11b6044820152606401620000df565b60005460405163514736cd60e01b81526001600160a01b039091169063514736cd906200016190889088908890889060040162000599565b60206040518083038186803b1580156200017a57600080fd5b505afa1580156200018f573d6000803e3d6000fd5b505050506040513d601f19601f82011682018060405250810190620001b5919062000543565b620001f35760405162461bcd60e51b815260206004820152600d60248201526c34b73b30b634b210383937b7b360991b6044820152606401620000df565b601a8110620002455760405162461bcd60e51b815260206004820152601860248201527f746f74616c206368617273206d757374206265206c65737300000000000000006044820152606401620000df565b8151600555600881905560005b600854811015620002e557600b836200026d8360016200065e565b601a8110620002805762000280620006ad565b6020908102919091015182546001818101855560009485529284200155600c8054918201815590915260637fdf6966c971051c3d54ec59162606531493a51404a002842f56009d7e5cf4a8c79091015580620002dc8162000679565b91505062000252565b5060078054906000620002f88362000679565b91905055507f34d8909b90b3e93f309bd491e3665d7343d6c27e1f746e3c9c345fe7bec47b206007546040516200033191815260200190565b60405180910390a15050505050565b80516001600160a01b03811681146200035857600080fd5b919050565b600082601f8301126200036f57600080fd5b6040516103408082016001600160401b0381118382101715620003a257634e487b7160e01b600052604160045260246000fd5b6040528184828101871015620003b757600080fd5b600092505b601a831015620003de57805182526001929092019160209182019101620003bc565b509195945050505050565b600082601f830112620003fb57600080fd5b6200040562000627565b8083856040860111156200041857600080fd5b60005b60028110156200043c5781518452602093840193909101906001016200041b565b509095945050505050565b6000806000806000806000806104c0898b0312156200046557600080fd5b620004708962000340565b97506200048060208a0162000340565b96506200049060408a0162000340565b9550620004a18a60608b01620003e9565b94508960bf8a0112620004b357600080fd5b620004bd62000627565b8060a08b016101208c018d811115620004d557600080fd5b60005b60028110156200050657620004ee8f84620003e9565b855260209094019360409290920191600101620004d8565b50829750620005168e82620003e9565b9650505050506200052c8a6101608b016200035d565b91506104a089015190509295985092959890939650565b6000602082840312156200055657600080fd5b815180151581146200056757600080fd5b9392505050565b8060005b60028110156200059357815184526020938401939091019060010162000572565b50505050565b6104408101620005aa82876200056e565b60408083018660005b6002811015620005de57620005ca8383516200056e565b9183019160209190910190600101620005b3565b50505050620005f160c08301856200056e565b61010082018360005b601a8110156200061b578151835260209283019290910190600101620005fa565b50505095945050505050565b604080519081016001600160401b03811182821017156200065857634e487b7160e01b600052604160045260246000fd5b60405290565b6000821982111562000674576200067462000697565b500190565b600060001982141562000690576200069062000697565b5060010190565b634e487b7160e01b600052601160045260246000fd5b634e487b7160e01b600052603260045260246000fd5b610ae480620006d36000396000f3fe608060405234801561001057600080fd5b50600436106100c55760003560e01c80631f491389146100ca57806325d4d1c1146100f057806345a28e6b1461010557806348db5f8914610118578063742aa731146101435780637b5904ad1461014c5780637bb43c6d1461015f57806384eed035146101725780638b2999031461017b5780638e88610b14610184578063bdb337d11461018d578063c6efa1f2146101aa578063d29e6803146101bd578063f437bc59146101c6578063fb40b499146101d9575b600080fd5b6100dd6100d836600461086a565b6101ec565b6040519081526020015b60405180910390f35b6101036100fe366004610750565b61020d565b005b61010361011336600461086a565b61051b565b60035461012b906001600160a01b031681565b6040516001600160a01b0390911681526020016100e7565b6100dd60065481565b6100dd61015a36600461086a565b6106d8565b6100dd61016d36600461086a565b6106e8565b6100dd60045481565b6100dd60075481565b6100dd60085481565b60095461019a9060ff1681565b60405190151581526020016100e7565b60005461012b906001600160a01b031681565b6100dd60055481565b60025461012b906001600160a01b031681565b60015461012b906001600160a01b031681565b600a81815481106101fc57600080fd5b600091825260209091200154905081565b60095460ff16156102395760405162461bcd60e51b815260040161023090610958565b60405180910390fd5b6002546001600160a01b031633146102635760405162461bcd60e51b815260040161023090610930565b600754158015906102805750600260075461027e9190610a40565b155b61029c5760405162461bcd60e51b815260040161023090610982565b600a80546102ac90600190610a0e565b815481106102bc576102bc610a78565b60009182526020909120015460408201511461030e5760405162461bcd60e51b815260206004820152601160248201527034b73b30b634b21031b430b930b1ba32b960791b6044820152606401610230565b6005548151146103515760405162461bcd60e51b815260206004820152600e60248201526d1a5b9d985b1a59081cd958dc995d60921b6044820152606401610230565b6001546040516308a3cff560e11b81526001600160a01b03909116906311479fea906103879087908790879087906004016108ac565b60206040518083038186803b15801561039f57600080fd5b505afa1580156103b3573d6000803e3d6000fd5b505050506040513d601f19601f820116820180604052508101906103d79190610841565b6104135760405162461bcd60e51b815260206004820152600d60248201526c34b73b30b634b210383937b7b360991b6044820152606401610230565b600160005b600b5481101561049c57600b818154811061043557610435610a78565b6000918252602091829020015490840151141561048a576040830151600c80548390811061046557610465610a78565b6000918252602082200191909155600680549193508361048483610a25565b91905055505b8061049481610a25565b915050610418565b5080156104bc576001600460008282546104b69190610a0e565b90915550505b600b5460065414156104d6576009805460ff191660011790555b600780549060006104e683610a25565b9190505550600080516020610a8f83398151915260075460405161050c91815260200190565b60405180910390a15050505050565b60095460ff161561053e5760405162461bcd60e51b815260040161023090610958565b60006004541161054d57600080fd5b6003546001600160a01b031633146105775760405162461bcd60e51b815260040161023090610930565b60026007546105869190610a40565b6001146105a55760405162461bcd60e51b815260040161023090610982565b60198111156105e65760405162461bcd60e51b815260206004820152600d60248201526c696e76616c696420677565737360981b6044820152606401610230565b60005b600a548110156106645781600a828154811061060757610607610a78565b906000526020600020015414156106525760405162461bcd60e51b815260206004820152600f60248201526e185b1c9958591e4819dd595cdcd959608a1b6044820152606401610230565b8061065c81610a25565b9150506105e9565b50600a805460018101825560009182527fc65a7bb8d6351c1cf70c95a316cc6a92839c986682d98bc35f958f4883f9d2a80182905560078054916106a783610a25565b9190505550600080516020610a8f8339815191526007546040516106cd91815260200190565b60405180910390a150565b600c81815481106101fc57600080fd5b600b81815481106101fc57600080fd5b600082601f83011261070957600080fd5b6107116109a8565b80838560408601111561072357600080fd5b60005b6002811015610745578135845260209384019390910190600101610726565b509095945050505050565b60008060008061016080868803121561076857600080fd5b61077287876106f8565b9450604087605f88011261078557600080fd5b61078d6109a8565b8082890160c08a018b8111156107a257600080fd5b60005b60028110156107cc576107b88d846106f8565b8552602090940193918501916001016107a5565b508298506107da8c826106f8565b975050505050508661011f8701126107f157600080fd5b6107f96109de565b80610100880189848a01111561080e57600080fd5b600093505b600384101561083357803583526001939093019260209283019201610813565b509598949750929550505050565b60006020828403121561085357600080fd5b8151801515811461086357600080fd5b9392505050565b60006020828403121561087c57600080fd5b5035919050565b8060005b60028110156108a6578151845260209384019390910190600101610887565b50505050565b61016081016108bb8287610883565b60408083018660005b60028110156108eb576108d8838351610883565b91830191602091909101906001016108c4565b505050506108fc60c0830185610883565b61010082018360005b6003811015610924578151835260209283019290910190600101610905565b50505095945050505050565b6020808252600e908201526d34b73b30b634b21031b0b63632b960911b604082015260600190565b60208082526010908201526f3a34329033b0b6b29034b99037bb32b960811b604082015260600190565b6020808252600c908201526b34b73b30b634b2103a3ab93760a11b604082015260600190565b604080519081016001600160401b03811182821017156109d857634e487b7160e01b600052604160045260246000fd5b60405290565b604051606081016001600160401b03811182821017156109d857634e487b7160e01b600052604160045260246000fd5b600082821015610a2057610a20610a62565b500390565b6000600019821415610a3957610a39610a62565b5060010190565b600082610a5d57634e487b7160e01b600052601260045260246000fd5b500690565b634e487b7160e01b600052601160045260246000fd5b634e487b7160e01b600052603260045260246000fdfe34d8909b90b3e93f309bd491e3665d7343d6c27e1f746e3c9c345fe7bec47b20a2646970667358221220e0dd178d2ceb2b72da9624dff5e2ca4dea26bde101d2e434cf1b2e17a76bbf2564736f6c63430008070033",
  "linkReferences": {},
  "deployedLinkReferences": {}
}