{
  "_format": "hh-sol-artifact-1",
  "contractName": "zkHangmanFactory",
  "sourceName": "contracts/zkHangmanFactory.sol",
  "abi": [
    {
      "anonymous": false,
      "inputs": [
        {
          "indexed": true,
          "internalType": "address",
          "name": "host",
          "type": "address"
        },
        {
          "indexed": true,
          "internalType": "address",
          "name": "player",
          "type": "address"
        },
        {
          "indexed": false,
          "internalType": "address",
          "name": "gameAddress",
          "type": "address"
        },
        {
          "indexed": false,
          "internalType": "address",
          "name": "initVerifier",
          "type": "address"
        },
        {
          "indexed": false,
          "internalType": "address",
          "name": "guessVerifier",
          "type": "address"
        }
      ],
      "name": "GameCreated",
      "type": "event"
    },
    {
      "inputs": [
        {
          "internalType": "address",
          "name": "_player",
          "type": "address"
        },
        {
          "internalType": "address",
          "name": "_initVerifier",
          "type": "address"
        },
        {
          "internalType": "address",
          "name": "_guessVerifier",
          "type": "address"
        },
        {
          "internalType": "uint256[2]",
          "name": "_a",
          "type": "uint256[2]"
        },
        {
          "internalType": "uint256[2][2]",
          "name": "_b",
          "type": "uint256[2][2]"
        },
        {
          "internalType": "uint256[2]",
          "name": "_c",
          "type": "uint256[2]"
        },
        {
          "internalType": "uint256[26]",
          "name": "_input",
          "type": "uint256[26]"
        },
        {
          "internalType": "uint256",
          "name": "_totalChars",
          "type": "uint256"
        }
      ],
      "name": "createGame",
      "outputs": [],
      "stateMutability": "nonpayable",
      "type": "function"
    },
    {
      "inputs": [
        {
          "internalType": "uint256",
          "name": "",
          "type": "uint256"
        }
      ],
      "name": "games",
      "outputs": [
        {
          "internalType": "address",
          "name": "",
          "type": "address"
        }
      ],
      "stateMutability": "view",
      "type": "function"
    }
  ],
  "bytecode": "0x608060405234801561001057600080fd5b50611725806100206000396000f3fe60806040523480156200001157600080fd5b50600436106200003a5760003560e01c8063117a5b90146200003f578063a0e5ce591462000072575b600080fd5b6200005662000050366004620003b2565b6200008b565b6040516001600160a01b03909116815260200160405180910390f35b6200008962000083366004620002b6565b620000b6565b005b600081815481106200009c57600080fd5b6000918252602090912001546001600160a01b0316905081565b60008888888888888888604051620000ce90620001a1565b620000e1989796959493929190620003f7565b604051809103906000f080158015620000fe573d6000803e3d6000fd5b50600080546001810182559080527f290decd9548b62a8d60345a988386fc84ba6bc95484008f6362f93160ef3e5630180546001600160a01b0319166001600160a01b03838116918217909255604080519182528b831660208301528a8316908201529192508a169033907f96cda00d0d9a369ced4a0bd9e603cc6a8d2eb4a3f905461f51c6e476c62819a79060600160405180910390a3505050505050505050565b61120480620004ec83390190565b80356001600160a01b0381168114620001c757600080fd5b919050565b600082601f830112620001de57600080fd5b6040516103408082016001600160401b03811183821017156200021157634e487b7160e01b600052604160045260246000fd5b60405281848281018710156200022657600080fd5b600092505b601a8310156200024d578035825260019290920191602091820191016200022b565b509195945050505050565b600082601f8301126200026a57600080fd5b62000274620004b4565b8083856040860111156200028757600080fd5b60005b6002811015620002ab5781358452602093840193909101906001016200028a565b509095945050505050565b6000806000806000806000806104c0898b031215620002d457600080fd5b620002df89620001af565b9750620002ef60208a01620001af565b9650620002ff60408a01620001af565b9550620003108a60608b0162000258565b94508960bf8a01126200032257600080fd5b6200032c620004b4565b8060a08b016101208c018d8111156200034457600080fd5b60005b600281101562000375576200035d8f8462000258565b85526020909401936040929092019160010162000347565b50829750620003858e8262000258565b9650505050506200039b8a6101608b01620001cc565b91506104a089013590509295985092959890939650565b600060208284031215620003c557600080fd5b5035919050565b8060005b6002811015620003f1578151845260209384019390910190600101620003d0565b50505050565b60006104c08201905060018060a01b03808b1683526020818b16818501526040828b16818601526200042d606086018b620003cc565b60a0850192508860005b60028110156200045f576200044e858351620003cc565b938201939083019060010162000437565b50505062000472610120850188620003cc565b610160840191508560005b601a8110156200049c578151845292820192908201906001016200047d565b50505050826104a08301529998505050505050505050565b604080519081016001600160401b0381118282101715620004e557634e487b7160e01b600052604160045260246000fd5b6040529056fe608060405260066004553480156200001657600080fd5b506040516200120438038062001204833981016040819052620000399162000494565b60028054336001600160a01b0319918216179091556003805482166001600160a01b038b8116919091179091556000805483168a8316179055600180549092169088161790556200008e85858585856200009c565b505050505050505062000710565b60095460ff1615620000e85760405162461bcd60e51b815260206004820152601060248201526f3a34329033b0b6b29034b99037bb32b960811b60448201526064015b60405180910390fd5b6002546001600160a01b03163314620001355760405162461bcd60e51b815260206004820152600e60248201526d34b73b30b634b21031b0b63632b960911b6044820152606401620000df565b60075415620001765760405162461bcd60e51b815260206004820152600c60248201526b34b73b30b634b2103a3ab93760a11b6044820152606401620000df565b60005460405163514736cd60e01b81526001600160a01b039091169063514736cd90620001ae908890889088908890600401620005e6565b60206040518083038186803b158015620001c757600080fd5b505afa158015620001dc573d6000803e3d6000fd5b505050506040513d601f19601f8201168201806040525081019062000202919062000590565b620002405760405162461bcd60e51b815260206004820152600d60248201526c34b73b30b634b210383937b7b360991b6044820152606401620000df565b601a8110620002925760405162461bcd60e51b815260206004820152601860248201527f746f74616c206368617273206d757374206265206c65737300000000000000006044820152606401620000df565b8151600555600881905560005b6008548110156200033257600b83620002ba836001620006ab565b601a8110620002cd57620002cd620006fa565b6020908102919091015182546001818101855560009485529284200155600c8054918201815590915260637fdf6966c971051c3d54ec59162606531493a51404a002842f56009d7e5cf4a8c790910155806200032981620006c6565b9150506200029f565b50600780549060006200034583620006c6565b91905055507f34d8909b90b3e93f309bd491e3665d7343d6c27e1f746e3c9c345fe7bec47b206007546040516200037e91815260200190565b60405180910390a15050505050565b80516001600160a01b0381168114620003a557600080fd5b919050565b600082601f830112620003bc57600080fd5b6040516103408082016001600160401b0381118382101715620003ef57634e487b7160e01b600052604160045260246000fd5b60405281848281018710156200040457600080fd5b600092505b601a8310156200042b5780518252600192909201916020918201910162000409565b509195945050505050565b600082601f8301126200044857600080fd5b6200045262000674565b8083856040860111156200046557600080fd5b60005b60028110156200048957815184526020938401939091019060010162000468565b509095945050505050565b6000806000806000806000806104c0898b031215620004b257600080fd5b620004bd896200038d565b9750620004cd60208a016200038d565b9650620004dd60408a016200038d565b9550620004ee8a60608b0162000436565b94508960bf8a01126200050057600080fd5b6200050a62000674565b8060a08b016101208c018d8111156200052257600080fd5b60005b600281101562000553576200053b8f8462000436565b85526020909401936040929092019160010162000525565b50829750620005638e8262000436565b965050505050620005798a6101608b01620003aa565b91506104a089015190509295985092959890939650565b600060208284031215620005a357600080fd5b81518015158114620005b457600080fd5b9392505050565b8060005b6002811015620005e0578151845260209384019390910190600101620005bf565b50505050565b6104408101620005f78287620005bb565b60408083018660005b60028110156200062b5762000617838351620005bb565b918301916020919091019060010162000600565b505050506200063e60c0830185620005bb565b61010082018360005b601a8110156200066857815183526020928301929091019060010162000647565b50505095945050505050565b604080519081016001600160401b0381118282101715620006a557634e487b7160e01b600052604160045260246000fd5b60405290565b60008219821115620006c157620006c1620006e4565b500190565b6000600019821415620006dd57620006dd620006e4565b5060010190565b634e487b7160e01b600052601160045260246000fd5b634e487b7160e01b600052603260045260246000fd5b610ae480620007206000396000f3fe608060405234801561001057600080fd5b50600436106100c55760003560e01c80631f491389146100ca57806325d4d1c1146100f057806345a28e6b1461010557806348db5f8914610118578063742aa731146101435780637b5904ad1461014c5780637bb43c6d1461015f57806384eed035146101725780638b2999031461017b5780638e88610b14610184578063bdb337d11461018d578063c6efa1f2146101aa578063d29e6803146101bd578063f437bc59146101c6578063fb40b499146101d9575b600080fd5b6100dd6100d836600461086a565b6101ec565b6040519081526020015b60405180910390f35b6101036100fe366004610750565b61020d565b005b61010361011336600461086a565b61051b565b60035461012b906001600160a01b031681565b6040516001600160a01b0390911681526020016100e7565b6100dd60065481565b6100dd61015a36600461086a565b6106d8565b6100dd61016d36600461086a565b6106e8565b6100dd60045481565b6100dd60075481565b6100dd60085481565b60095461019a9060ff1681565b60405190151581526020016100e7565b60005461012b906001600160a01b031681565b6100dd60055481565b60025461012b906001600160a01b031681565b60015461012b906001600160a01b031681565b600a81815481106101fc57600080fd5b600091825260209091200154905081565b60095460ff16156102395760405162461bcd60e51b815260040161023090610958565b60405180910390fd5b6002546001600160a01b031633146102635760405162461bcd60e51b815260040161023090610930565b600754158015906102805750600260075461027e9190610a40565b155b61029c5760405162461bcd60e51b815260040161023090610982565b600a80546102ac90600190610a0e565b815481106102bc576102bc610a78565b60009182526020909120015460408201511461030e5760405162461bcd60e51b815260206004820152601160248201527034b73b30b634b21031b430b930b1ba32b960791b6044820152606401610230565b6005548151146103515760405162461bcd60e51b815260206004820152600e60248201526d1a5b9d985b1a59081cd958dc995d60921b6044820152606401610230565b6001546040516308a3cff560e11b81526001600160a01b03909116906311479fea906103879087908790879087906004016108ac565b60206040518083038186803b15801561039f57600080fd5b505afa1580156103b3573d6000803e3d6000fd5b505050506040513d601f19601f820116820180604052508101906103d79190610841565b6104135760405162461bcd60e51b815260206004820152600d60248201526c34b73b30b634b210383937b7b360991b6044820152606401610230565b600160005b600b5481101561049c57600b818154811061043557610435610a78565b6000918252602091829020015490840151141561048a576040830151600c80548390811061046557610465610a78565b6000918252602082200191909155600680549193508361048483610a25565b91905055505b8061049481610a25565b915050610418565b5080156104bc576001600460008282546104b69190610a0e565b90915550505b600b5460065414156104d6576009805460ff191660011790555b600780549060006104e683610a25565b9190505550600080516020610a8f83398151915260075460405161050c91815260200190565b60405180910390a15050505050565b60095460ff161561053e5760405162461bcd60e51b815260040161023090610958565b60006004541161054d57600080fd5b6003546001600160a01b031633146105775760405162461bcd60e51b815260040161023090610930565b60026007546105869190610a40565b6001146105a55760405162461bcd60e51b815260040161023090610982565b60198111156105e65760405162461bcd60e51b815260206004820152600d60248201526c696e76616c696420677565737360981b6044820152606401610230565b60005b600a548110156106645781600a828154811061060757610607610a78565b906000526020600020015414156106525760405162461bcd60e51b815260206004820152600f60248201526e185b1c9958591e4819dd595cdcd959608a1b6044820152606401610230565b8061065c81610a25565b9150506105e9565b50600a805460018101825560009182527fc65a7bb8d6351c1cf70c95a316cc6a92839c986682d98bc35f958f4883f9d2a80182905560078054916106a783610a25565b9190505550600080516020610a8f8339815191526007546040516106cd91815260200190565b60405180910390a150565b600c81815481106101fc57600080fd5b600b81815481106101fc57600080fd5b600082601f83011261070957600080fd5b6107116109a8565b80838560408601111561072357600080fd5b60005b6002811015610745578135845260209384019390910190600101610726565b509095945050505050565b60008060008061016080868803121561076857600080fd5b61077287876106f8565b9450604087605f88011261078557600080fd5b61078d6109a8565b8082890160c08a018b8111156107a257600080fd5b60005b60028110156107cc576107b88d846106f8565b8552602090940193918501916001016107a5565b508298506107da8c826106f8565b975050505050508661011f8701126107f157600080fd5b6107f96109de565b80610100880189848a01111561080e57600080fd5b600093505b600384101561083357803583526001939093019260209283019201610813565b509598949750929550505050565b60006020828403121561085357600080fd5b8151801515811461086357600080fd5b9392505050565b60006020828403121561087c57600080fd5b5035919050565b8060005b60028110156108a6578151845260209384019390910190600101610887565b50505050565b61016081016108bb8287610883565b60408083018660005b60028110156108eb576108d8838351610883565b91830191602091909101906001016108c4565b505050506108fc60c0830185610883565b61010082018360005b6003811015610924578151835260209283019290910190600101610905565b50505095945050505050565b6020808252600e908201526d34b73b30b634b21031b0b63632b960911b604082015260600190565b60208082526010908201526f3a34329033b0b6b29034b99037bb32b960811b604082015260600190565b6020808252600c908201526b34b73b30b634b2103a3ab93760a11b604082015260600190565b604080519081016001600160401b03811182821017156109d857634e487b7160e01b600052604160045260246000fd5b60405290565b604051606081016001600160401b03811182821017156109d857634e487b7160e01b600052604160045260246000fd5b600082821015610a2057610a20610a62565b500390565b6000600019821415610a3957610a39610a62565b5060010190565b600082610a5d57634e487b7160e01b600052601260045260246000fd5b500690565b634e487b7160e01b600052601160045260246000fd5b634e487b7160e01b600052603260045260246000fdfe34d8909b90b3e93f309bd491e3665d7343d6c27e1f746e3c9c345fe7bec47b20a26469706673582212202badcef97e0408ecdeb00b1fad45dd61a92dec3b3682132a428fc506c434e6b464736f6c63430008070033a264697066735822122056606763a7c126ee3e88ecfad6a35a1c14322187f016947bc096f92a397a9c9464736f6c63430008070033",
  "linkReferences": {},
  "deployedLinkReferences": {}
}