{
  "_format": "hh-sol-artifact-1",
  "contractName": "zkHangmanFactory",
  "sourceName": "contracts/zkHangmanFactory.sol",
  "abi": [
    {
      "anonymous": false,
      "inputs": [
        {
          "indexed": true,
          "internalType": "address",
          "name": "host",
          "type": "address"
        },
        {
          "indexed": false,
          "internalType": "address",
          "name": "gameAddress",
          "type": "address"
        },
        {
          "indexed": false,
          "internalType": "address",
          "name": "initVerifier",
          "type": "address"
        },
        {
          "indexed": false,
          "internalType": "address",
          "name": "guessVerifier",
          "type": "address"
        },
        {
          "indexed": false,
          "internalType": "uint256",
          "name": "totalChars",
          "type": "uint256"
        }
      ],
      "name": "GameCreated",
      "type": "event"
    },
    {
      "inputs": [
        {
          "internalType": "address",
          "name": "_initVerifier",
          "type": "address"
        },
        {
          "internalType": "address",
          "name": "_guessVerifier",
          "type": "address"
        },
        {
          "internalType": "uint256[2]",
          "name": "_a",
          "type": "uint256[2]"
        },
        {
          "internalType": "uint256[2][2]",
          "name": "_b",
          "type": "uint256[2][2]"
        },
        {
          "internalType": "uint256[2]",
          "name": "_c",
          "type": "uint256[2]"
        },
        {
          "internalType": "uint256[26]",
          "name": "_input",
          "type": "uint256[26]"
        },
        {
          "internalType": "uint256",
          "name": "_totalChars",
          "type": "uint256"
        }
      ],
      "name": "createGame",
      "outputs": [],
      "stateMutability": "nonpayable",
      "type": "function"
    },
    {
      "inputs": [
        {
          "internalType": "uint256",
          "name": "",
          "type": "uint256"
        }
      ],
      "name": "games",
      "outputs": [
        {
          "internalType": "address",
          "name": "",
          "type": "address"
        }
      ],
      "stateMutability": "view",
      "type": "function"
    }
  ],
  "bytecode": "0x608060405234801561001057600080fd5b506119cd806100206000396000f3fe60806040523480156200001157600080fd5b50600436106200003a5760003560e01c806306418345146200003f578063117a5b901462000058575b600080fd5b6200005662000050366004620002b7565b6200008b565b005b6200006f62000069366004620003a1565b62000177565b6040516001600160a01b03909116815260200160405180910390f35b600087878787878787604051620000a290620001a2565b620000b49796959493929190620003e6565b604051809103906000f080158015620000d1573d6000803e3d6000fd5b50600080546001810182559080527f290decd9548b62a8d60345a988386fc84ba6bc95484008f6362f93160ef3e5630180546001600160a01b038381166001600160a01b03199092168217909255604080519182528b83166020830152918a168183015260608101859052905191925033917f817f4f6c1cc0a8619c2e2a6f7a4147ab205e2ed8fb28d972bcc5cd7e80d42dc79181900360800190a25050505050505050565b600081815481106200018857600080fd5b6000918252602090912001546001600160a01b0316905081565b6114c780620004d183390190565b80356001600160a01b0381168114620001c857600080fd5b919050565b600082601f830112620001df57600080fd5b6040516103408082016001600160401b03811183821017156200021257634e487b7160e01b600052604160045260246000fd5b60405281848281018710156200022757600080fd5b600092505b601a8310156200024e578035825260019290920191602091820191016200022c565b509195945050505050565b600082601f8301126200026b57600080fd5b6200027562000499565b8083856040860111156200028857600080fd5b60005b6002811015620002ac5781358452602093840193909101906001016200028b565b509095945050505050565b60008060008060008060006104a0888a031215620002d457600080fd5b620002df88620001b0565b96506020620002f0818a01620001b0565b9650620003018a60408b0162000259565b955089609f8a01126200031357600080fd5b6200031d62000499565b8060808b016101008c018d8111156200033557600080fd5b60005b600281101562000364576200034e8f8462000259565b8552938501936040929092019160010162000338565b50829850620003748e8262000259565b975050505050506200038b896101408a01620001cd565b9150610480880135905092959891949750929550565b600060208284031215620003b457600080fd5b5035919050565b8060005b6002811015620003e0578151845260209384019390910190600101620003bf565b50505050565b6001600160a01b03888116825287166020808301919091526104a0820190604090620004158285018a620003bb565b608084018860005b6002811015620004455762000434838351620003bb565b91840191908301906001016200041d565b50505062000458610100850188620003bb565b610140840191508560005b601a811015620004825781518452928201929082019060010162000463565b505050508261048083015298975050505050505050565b604080519081016001600160401b0381118282101715620004ca57634e487b7160e01b600052604160045260246000fd5b6040529056fe608060405260066004553480156200001657600080fd5b50604051620014c7380380620014c783398101604081905262000039916200043a565b60028054326001600160a01b0319918216179091556000805482166001600160a01b038a811691909117909155600180549092169088161790556200008285858585856200008f565b50505050505050620006a3565b60095460ff1615620000db5760405162461bcd60e51b815260206004820152601060248201526f3a34329033b0b6b29034b99037bb32b960811b60448201526064015b60405180910390fd5b600754156200011c5760405162461bcd60e51b815260206004820152600c60248201526b34b73b30b634b2103a3ab93760a11b6044820152606401620000d2565b60005460405163514736cd60e01b81526001600160a01b039091169063514736cd906200015490889088908890889060040162000579565b60206040518083038186803b1580156200016d57600080fd5b505afa15801562000182573d6000803e3d6000fd5b505050506040513d601f19601f82011682018060405250810190620001a8919062000523565b620001e65760405162461bcd60e51b815260206004820152600d60248201526c34b73b30b634b210383937b7b360991b6044820152606401620000d2565b601a8110620002385760405162461bcd60e51b815260206004820152601860248201527f746f74616c206368617273206d757374206265206c65737300000000000000006044820152606401620000d2565b8151600555600881905560005b600854811015620002d857600b83620002608360016200063e565b601a81106200027357620002736200068d565b6020908102919091015182546001818101855560009485529284200155600c8054918201815590915260637fdf6966c971051c3d54ec59162606531493a51404a002842f56009d7e5cf4a8c79091015580620002cf8162000659565b91505062000245565b5060078054906000620002eb8362000659565b91905055507f34d8909b90b3e93f309bd491e3665d7343d6c27e1f746e3c9c345fe7bec47b206007546040516200032491815260200190565b60405180910390a15050505050565b80516001600160a01b03811681146200034b57600080fd5b919050565b600082601f8301126200036257600080fd5b6040516103408082016001600160401b03811183821017156200039557634e487b7160e01b600052604160045260246000fd5b6040528184828101871015620003aa57600080fd5b600092505b601a831015620003d157805182526001929092019160209182019101620003af565b509195945050505050565b600082601f830112620003ee57600080fd5b620003f862000607565b8083856040860111156200040b57600080fd5b60005b60028110156200042f5781518452602093840193909101906001016200040e565b509095945050505050565b60008060008060008060006104a0888a0312156200045757600080fd5b620004628862000333565b9650620004726020890162000333565b95506040620004848a828b01620003dc565b955089609f8a01126200049657600080fd5b620004a062000607565b8060808b016101008c018d811115620004b857600080fd5b60005b6002811015620004e657620004d18f84620003dc565b855260209094019391850191600101620004bb565b50829850620004f68e82620003dc565b975050505050506200050d896101408a0162000350565b9150610480880151905092959891949750929550565b6000602082840312156200053657600080fd5b815180151581146200054757600080fd5b9392505050565b8060005b60028110156200057357815184526020938401939091019060010162000552565b50505050565b61044081016200058a82876200054e565b60408083018660005b6002811015620005be57620005aa8383516200054e565b918301916020919091019060010162000593565b50505050620005d160c08301856200054e565b61010082018360005b601a811015620005fb578151835260209283019290910190600101620005da565b50505095945050505050565b604080519081016001600160401b03811182821017156200063857634e487b7160e01b600052604160045260246000fd5b60405290565b6000821982111562000654576200065462000677565b500190565b600060001982141562000670576200067062000677565b5060010190565b634e487b7160e01b600052601160045260246000fd5b634e487b7160e01b600052603260045260246000fd5b610e1480620006b36000396000f3fe608060405234801561001057600080fd5b50600436106100db5760003560e01c80630e822db5146100e05780631746bd1b146100f55780631f4913891461011c57806345a28e6b1461013d57806348db5f8914610150578063742aa7311461017b5780637b5904ad146101845780637bb43c6d1461019757806384eed035146101aa5780638b299903146101b35780638e88610b146101bc578063bdb337d1146101c5578063c6efa1f2146101e2578063d29e6803146101f5578063d4f77b1c146101fe578063f437bc5914610206578063fb40b49914610219575b600080fd5b6100f36100ee3660046109a5565b61022c565b005b6100fd610559565b6040516101139a99989796959493929190610b3c565b60405180910390f35b61012f61012a366004610abf565b61068a565b604051908152602001610113565b6100f361014b366004610abf565b6106ab565b600354610163906001600160a01b031681565b6040516001600160a01b039091168152602001610113565b61012f60065481565b61012f610192366004610abf565b610868565b61012f6101a5366004610abf565b610878565b61012f60045481565b61012f60075481565b61012f60085481565b6009546101d29060ff1681565b6040519015158152602001610113565b600054610163906001600160a01b031681565b61012f60055481565b6100f3610888565b600254610163906001600160a01b031681565b600154610163906001600160a01b031681565b60095460ff16156102585760405162461bcd60e51b815260040161024f90610c6f565b60405180910390fd5b6002546001600160a01b031633146102825760405162461bcd60e51b815260040161024f90610c47565b6007541580159061029f5750600260075461029d9190610d70565b155b6102bb5760405162461bcd60e51b815260040161024f90610c99565b600a80546102cb90600190610d3e565b815481106102db576102db610da8565b6000918252602090912001546103408201511461032e5760405162461bcd60e51b815260206004820152601160248201527034b73b30b634b21031b430b930b1ba32b960791b604482015260640161024f565b6005548151146103715760405162461bcd60e51b815260206004820152600e60248201526d1a5b9d985b1a59081cd958dc995d60921b604482015260640161024f565b600154604051631ab2512d60e11b81526001600160a01b0390911690633564a25a906103a7908790879087908790600401610bc3565b60206040518083038186803b1580156103bf57600080fd5b505afa1580156103d3573d6000803e3d6000fd5b505050506040513d601f19601f820116820180604052508101906103f79190610a96565b6104335760405162461bcd60e51b815260206004820152600d60248201526c34b73b30b634b210383937b7b360991b604482015260640161024f565b600160005b600b548110156104da57600b818154811061045557610455610da8565b90600052602060002001548382600161046e9190610d26565b601b811061047e5761047e610da8565b602002015114156104c857610340830151600c8054839081106104a3576104a3610da8565b600091825260208220019190915560068054919350836104c283610d55565b91905055505b806104d281610d55565b915050610438565b5080156104fa576001600460008282546104f49190610d3e565b90915550505b600b546006541415610514576009805460ff191660011790555b6007805490600061052483610d55565b9190505550600080516020610dbf83398151915260075460405161054a91815260200190565b60405180910390a15050505050565b600254600354600454600954600654600754600854600a8054604080516020808402820181019092528281526001600160a01b039a8b169a9099169860ff90971696606093849384938301828280156105d157602002820191906000526020600020905b8154815260200190600101908083116105bd575b50505050509250600b80548060200260200160405190810160405280929190818152602001828054801561062457602002820191906000526020600020905b815481526020019060010190808311610610575b50505050509150600c80548060200260200160405190810160405280929190818152602001828054801561067757602002820191906000526020600020905b815481526020019060010190808311610663575b5050505050905090919293949596979899565b600a818154811061069a57600080fd5b600091825260209091200154905081565b60095460ff16156106ce5760405162461bcd60e51b815260040161024f90610c6f565b6000600454116106dd57600080fd5b6003546001600160a01b031633146107075760405162461bcd60e51b815260040161024f90610c47565b60026007546107169190610d70565b6001146107355760405162461bcd60e51b815260040161024f90610c99565b60198111156107765760405162461bcd60e51b815260206004820152600d60248201526c696e76616c696420677565737360981b604482015260640161024f565b60005b600a548110156107f45781600a828154811061079757610797610da8565b906000526020600020015414156107e25760405162461bcd60e51b815260206004820152600f60248201526e185b1c9958591e4819dd595cdcd959608a1b604482015260640161024f565b806107ec81610d55565b915050610779565b50600a805460018101825560009182527fc65a7bb8d6351c1cf70c95a316cc6a92839c986682d98bc35f958f4883f9d2a801829055600780549161083783610d55565b9190505550600080516020610dbf83398151915260075460405161085d91815260200190565b60405180910390a150565b600c818154811061069a57600080fd5b600b818154811061069a57600080fd5b6002546001600160a01b03163314156108d45760405162461bcd60e51b815260206004820152600e60248201526d34b73b30b634b210383630bcb2b960911b604482015260640161024f565b6003546001600160a01b0316156109395760405162461bcd60e51b815260206004820152602360248201527f736f6d656f6e652068617320616c7265616479206a6f696e6564207468652067604482015262616d6560e81b606482015260840161024f565b600380546001600160a01b03191633179055565b600082601f83011261095e57600080fd5b610966610cbf565b80838560408601111561097857600080fd5b60005b600281101561099a57813584526020938401939091019060010161097b565b509095945050505050565b6000806000806104608086880312156109bd57600080fd5b6109c7878761094d565b9450604087605f8801126109da57600080fd5b6109e2610cbf565b8082890160c08a018b8111156109f757600080fd5b60005b6002811015610a2157610a0d8d8461094d565b8552602090940193918501916001016109fa565b50829850610a2f8c8261094d565b975050505050508661011f870112610a4657600080fd5b610a4e610cf5565b80610100880189848a011115610a6357600080fd5b600093505b601b841015610a8857803583526001939093019260209283019201610a68565b509598949750929550505050565b600060208284031215610aa857600080fd5b81518015158114610ab857600080fd5b9392505050565b600060208284031215610ad157600080fd5b5035919050565b8060005b6002811015610afb578151845260209384019390910190600101610adc565b50505050565b600081518084526020808501945080840160005b83811015610b3157815187529582019590820190600101610b15565b509495945050505050565b600061014060018060a01b03808e168452808d166020850152508a604084015289151560608401528860808401528760a08401528660c08401528060e0840152610b8881840187610b01565b9050828103610100840152610b9d8186610b01565b9050828103610120840152610bb28185610b01565b9d9c50505050505050505050505050565b6104608101610bd28287610ad8565b60408083018660005b6002811015610c0257610bef838351610ad8565b9183019160209190910190600101610bdb565b50505050610c1360c0830185610ad8565b61010082018360005b601b811015610c3b578151835260209283019290910190600101610c1c565b50505095945050505050565b6020808252600e908201526d34b73b30b634b21031b0b63632b960911b604082015260600190565b60208082526010908201526f3a34329033b0b6b29034b99037bb32b960811b604082015260600190565b6020808252600c908201526b34b73b30b634b2103a3ab93760a11b604082015260600190565b604080519081016001600160401b0381118282101715610cef57634e487b7160e01b600052604160045260246000fd5b60405290565b60405161036081016001600160401b0381118282101715610cef57634e487b7160e01b600052604160045260246000fd5b60008219821115610d3957610d39610d92565b500190565b600082821015610d5057610d50610d92565b500390565b6000600019821415610d6957610d69610d92565b5060010190565b600082610d8d57634e487b7160e01b600052601260045260246000fd5b500690565b634e487b7160e01b600052601160045260246000fd5b634e487b7160e01b600052603260045260246000fdfe34d8909b90b3e93f309bd491e3665d7343d6c27e1f746e3c9c345fe7bec47b20a26469706673582212201f0023aab042bb6f6d91f5bfa97c75fc47918daf7ef754810cb2097a3e3c092264736f6c63430008070033a26469706673582212208ff6c3d7842520b199c73d07df368259db2b069a0c1c4d12bea8e934ed03d89064736f6c63430008070033",
  "linkReferences": {},
  "deployedLinkReferences": {}
}