{
  "_format": "hh-sol-artifact-1",
  "contractName": "zkHangman",
  "sourceName": "contracts/zkHangman.sol",
  "abi": [
    {
      "inputs": [
        {
          "internalType": "address",
          "name": "_host",
          "type": "address"
        },
        {
          "internalType": "address",
          "name": "_player",
          "type": "address"
        },
        {
          "internalType": "address",
          "name": "_initVerifier",
          "type": "address"
        },
        {
          "internalType": "address",
          "name": "_guessVerifier",
          "type": "address"
        }
      ],
      "stateMutability": "nonpayable",
      "type": "constructor"
    },
    {
      "anonymous": false,
      "inputs": [
        {
          "indexed": false,
          "internalType": "uint256",
          "name": "nextTurn",
          "type": "uint256"
        }
      ],
      "name": "NextTurn",
      "type": "event"
    },
    {
      "inputs": [
        {
          "internalType": "uint256",
          "name": "",
          "type": "uint256"
        }
      ],
      "name": "characterHashes",
      "outputs": [
        {
          "internalType": "uint256",
          "name": "",
          "type": "uint256"
        }
      ],
      "stateMutability": "view",
      "type": "function"
    },
    {
      "inputs": [],
      "name": "correctGuesses",
      "outputs": [
        {
          "internalType": "uint256",
          "name": "",
          "type": "uint256"
        }
      ],
      "stateMutability": "view",
      "type": "function"
    },
    {
      "inputs": [],
      "name": "gameOver",
      "outputs": [
        {
          "internalType": "bool",
          "name": "",
          "type": "bool"
        }
      ],
      "stateMutability": "view",
      "type": "function"
    },
    {
      "inputs": [],
      "name": "guessVerifier",
      "outputs": [
        {
          "internalType": "contract GuessVerifier",
          "name": "",
          "type": "address"
        }
      ],
      "stateMutability": "view",
      "type": "function"
    },
    {
      "inputs": [
        {
          "internalType": "uint256",
          "name": "",
          "type": "uint256"
        }
      ],
      "name": "guesses",
      "outputs": [
        {
          "internalType": "uint256",
          "name": "",
          "type": "uint256"
        }
      ],
      "stateMutability": "view",
      "type": "function"
    },
    {
      "inputs": [],
      "name": "host",
      "outputs": [
        {
          "internalType": "address",
          "name": "",
          "type": "address"
        }
      ],
      "stateMutability": "view",
      "type": "function"
    },
    {
      "inputs": [],
      "name": "initVerifier",
      "outputs": [
        {
          "internalType": "contract InitVerifier",
          "name": "",
          "type": "address"
        }
      ],
      "stateMutability": "view",
      "type": "function"
    },
    {
      "inputs": [
        {
          "internalType": "uint256[2]",
          "name": "_a",
          "type": "uint256[2]"
        },
        {
          "internalType": "uint256[2][2]",
          "name": "_b",
          "type": "uint256[2][2]"
        },
        {
          "internalType": "uint256[2]",
          "name": "_c",
          "type": "uint256[2]"
        },
        {
          "internalType": "uint256[26]",
          "name": "_input",
          "type": "uint256[26]"
        }
      ],
      "name": "initializeGame",
      "outputs": [],
      "stateMutability": "nonpayable",
      "type": "function"
    },
    {
      "inputs": [],
      "name": "player",
      "outputs": [
        {
          "internalType": "address",
          "name": "",
          "type": "address"
        }
      ],
      "stateMutability": "view",
      "type": "function"
    },
    {
      "inputs": [
        {
          "internalType": "uint256",
          "name": "_guess",
          "type": "uint256"
        }
      ],
      "name": "playerGuess",
      "outputs": [],
      "stateMutability": "nonpayable",
      "type": "function"
    },
    {
      "inputs": [],
      "name": "playerLives",
      "outputs": [
        {
          "internalType": "uint256",
          "name": "",
          "type": "uint256"
        }
      ],
      "stateMutability": "view",
      "type": "function"
    },
    {
      "inputs": [
        {
          "internalType": "uint256[2]",
          "name": "_a",
          "type": "uint256[2]"
        },
        {
          "internalType": "uint256[2][2]",
          "name": "_b",
          "type": "uint256[2][2]"
        },
        {
          "internalType": "uint256[2]",
          "name": "_c",
          "type": "uint256[2]"
        },
        {
          "internalType": "uint256[3]",
          "name": "_input",
          "type": "uint256[3]"
        }
      ],
      "name": "processGuess",
      "outputs": [],
      "stateMutability": "nonpayable",
      "type": "function"
    },
    {
      "inputs": [
        {
          "internalType": "uint256",
          "name": "",
          "type": "uint256"
        }
      ],
      "name": "revealedChars",
      "outputs": [
        {
          "internalType": "uint256",
          "name": "",
          "type": "uint256"
        }
      ],
      "stateMutability": "view",
      "type": "function"
    },
    {
      "inputs": [],
      "name": "secretHash",
      "outputs": [
        {
          "internalType": "uint256",
          "name": "",
          "type": "uint256"
        }
      ],
      "stateMutability": "view",
      "type": "function"
    },
    {
      "inputs": [],
      "name": "turn",
      "outputs": [
        {
          "internalType": "uint256",
          "name": "",
          "type": "uint256"
        }
      ],
      "stateMutability": "view",
      "type": "function"
    }
  ],
  "bytecode": "0x608060405260066004553480156200001657600080fd5b5060405162000f1b38038062000f1b8339810160408190526200003991620000e5565b600280546001600160a01b038087166001600160a01b031992831617909255600380548684169083161790556000805485841690831617815560018054938516939092169290921790555b6005811015620000bd576063600f8260058110620000a657620000a66200016c565b015580620000b48162000142565b91505062000084565b505050505062000182565b80516001600160a01b0381168114620000e057600080fd5b919050565b60008060008060808587031215620000fc57600080fd5b6200010785620000c8565b93506200011760208601620000c8565b92506200012760408601620000c8565b91506200013760608601620000c8565b905092959194509250565b60006000198214156200016557634e487b7160e01b600052601160045260246000fd5b5060010190565b634e487b7160e01b600052603260045260246000fd5b610d8980620001926000396000f3fe608060405234801561001057600080fd5b50600436106100c55760003560e01c80631f491389146100ca57806325d4d1c1146100f057806345a28e6b1461010557806348db5f8914610118578063742aa731146101435780637b5904ad1461014c5780637bb43c6d1461015f57806384eed035146101725780638b2999031461017b578063bdb337d114610184578063c6efa1f2146101a1578063d29e6803146101b4578063ec509a2b146101bd578063f437bc59146101d0578063fb40b499146101e3575b600080fd5b6100dd6100d8366004610a4c565b6101f6565b6040519081526020015b60405180910390f35b6101036100fe36600461098f565b610217565b005b610103610113366004610a4c565b6104ee565b60035461012b906001600160a01b031681565b6040516001600160a01b0390911681526020016100e7565b6100dd60065481565b6100dd61015a366004610a4c565b610669565b6100dd61016d366004610a4c565b610680565b6100dd60045481565b6100dd60075481565b6008546101919060ff1681565b60405190151581526020016100e7565b60005461012b906001600160a01b031681565b6100dd60055481565b6101036101cb3660046108ed565b610690565b60025461012b906001600160a01b031681565b60015461012b906001600160a01b031681565b6009818154811061020657600080fd5b600091825260209091200154905081565b60085460ff16156102435760405162461bcd60e51b815260040161023a90610b92565b60405180910390fd5b6002546001600160a01b0316331461026d5760405162461bcd60e51b815260040161023a90610b6a565b6007541580159061028a575060026007546102889190610ccf565b155b6102a65760405162461bcd60e51b815260040161023a90610c0a565b600980546102b690600190610c9d565b815481106102c6576102c6610d07565b6000918252602090912001546040820151146103185760405162461bcd60e51b815260206004820152601160248201527034b73b30b634b21031b430b930b1ba32b960791b604482015260640161023a565b60055481511461035b5760405162461bcd60e51b815260206004820152600e60248201526d1a5b9d985b1a59081cd958dc995d60921b604482015260640161023a565b6001546040516308a3cff560e11b81526001600160a01b03909116906311479fea90610391908790879087908790600401610b19565b60206040518083038186803b1580156103a957600080fd5b505afa1580156103bd573d6000803e3d6000fd5b505050506040513d601f19601f820116820180604052508101906103e19190610a23565b6103fd5760405162461bcd60e51b815260040161023a90610bbc565b600160005b600581101561047057600a816005811061041e5761041e610d07565b01546020840151141561045e576040830151600f826005811061044357610443610d07565b01556006805460009350908361045883610cb4565b91905055505b8061046881610cb4565b915050610402565b5080156104905760016004600082825461048a9190610c9d565b90915550505b600560065414156104a9576008805460ff191660011790555b600780549060006104b983610cb4565b9190505550600080516020610d348339815191526007546040516104df91815260200190565b60405180910390a15050505050565b60085460ff16156105115760405162461bcd60e51b815260040161023a90610b92565b60006004541161052057600080fd5b6003546001600160a01b0316331461054a5760405162461bcd60e51b815260040161023a90610b6a565b60026007546105599190610ccf565b6001146105785760405162461bcd60e51b815260040161023a90610c0a565b60198111156105995760405162461bcd60e51b815260040161023a90610be3565b60005b6009548110156105f55781600982815481106105ba576105ba610d07565b906000526020600020015414156105e35760405162461bcd60e51b815260040161023a90610be3565b806105ed81610cb4565b91505061059c565b506009805460018101825560009182527f6e1540171b6c0c960b71a7020d9f60077f6af931a8bbf590da0223dacf75c7af01829055600780549161063883610cb4565b9190505550600080516020610d3483398151915260075460405161065e91815260200190565b60405180910390a150565b600f816005811061067957600080fd5b0154905081565b600a816005811061067957600080fd5b60085460ff16156106b35760405162461bcd60e51b815260040161023a90610b92565b6002546001600160a01b031633146106dd5760405162461bcd60e51b815260040161023a90610b6a565b600754156106fd5760405162461bcd60e51b815260040161023a90610c0a565b60005460405163514736cd60e01b81526001600160a01b039091169063514736cd90610733908790879087908790600401610abc565b60206040518083038186803b15801561074b57600080fd5b505afa15801561075f573d6000803e3d6000fd5b505050506040513d601f19601f820116820180604052508101906107839190610a23565b61079f5760405162461bcd60e51b815260040161023a90610bbc565b805160055560015b601a8110156107f8578181601a81106107c2576107c2610d07565b6020020151600a6107d4600184610c9d565b600581106107e4576107e4610d07565b0155806107f081610cb4565b9150506107a7565b506007805490600061080983610cb4565b9190505550600080516020610d3483398151915260075460405161082f91815260200190565b60405180910390a150505050565b600082601f83011261084e57600080fd5b610856610c30565b80838560808601111561086857600080fd5b60005b60028110156108955761087e87836108a0565b84526020909301926040919091019060010161086b565b509095945050505050565b600082601f8301126108b157600080fd5b6108b9610c30565b8083856040860111156108cb57600080fd5b60005b60028110156108955781358452602093840193909101906001016108ce565b60008060008061044080868803121561090557600080fd5b61090f87876108a0565b945061091e876040880161083d565b935061092d8760c088016108a0565b92508661011f87011261093f57600080fd5b610947610c58565b80610100880189848a01111561095c57600080fd5b600093505b601a84101561098157803583526001939093019260209283019201610961565b509598949750929550505050565b6000806000806101608086880312156109a757600080fd5b6109b187876108a0565b94506109c0876040880161083d565b93506109cf8760c088016108a0565b92508661011f8701126109e157600080fd5b6109e9610c7b565b80610100880189848a0111156109fe57600080fd5b600093505b600384101561098157803583526001939093019260209283019201610a03565b600060208284031215610a3557600080fd5b81518015158114610a4557600080fd5b9392505050565b600060208284031215610a5e57600080fd5b5035919050565b8060005b6002811015610a9357610a7d848351610a99565b6040939093019260209190910190600101610a69565b50505050565b8060005b6002811015610a93578151845260209384019390910190600101610a9d565b6104408101610acb8287610a99565b610ad86040830186610a65565b610ae560c0830185610a99565b61010082018360005b601a811015610b0d578151835260209283019290910190600101610aee565b50505095945050505050565b6101608101610b288287610a99565b610b356040830186610a65565b610b4260c0830185610a99565b61010082018360005b6003811015610b0d578151835260209283019290910190600101610b4b565b6020808252600e908201526d34b73b30b634b21031b0b63632b960911b604082015260600190565b60208082526010908201526f3a34329033b0b6b29034b99037bb32b960811b604082015260600190565b6020808252600d908201526c34b73b30b634b210383937b7b360991b604082015260600190565b6020808252600d908201526c696e76616c696420677565737360981b604082015260600190565b6020808252600c908201526b34b73b30b634b2103a3ab93760a11b604082015260600190565b604080519081016001600160401b0381118282101715610c5257610c52610d1d565b60405290565b60405161034081016001600160401b0381118282101715610c5257610c52610d1d565b604051606081016001600160401b0381118282101715610c5257610c52610d1d565b600082821015610caf57610caf610cf1565b500390565b6000600019821415610cc857610cc8610cf1565b5060010190565b600082610cec57634e487b7160e01b600052601260045260246000fd5b500690565b634e487b7160e01b600052601160045260246000fd5b634e487b7160e01b600052603260045260246000fd5b634e487b7160e01b600052604160045260246000fdfe34d8909b90b3e93f309bd491e3665d7343d6c27e1f746e3c9c345fe7bec47b20a2646970667358221220d1767aaeff654d3b3e09de83ce0bff73beeeaa3203400b4fc4d9ab380cd5d8ee64736f6c63430008070033",
  "linkReferences": {},
  "deployedLinkReferences": {}
}