{
  "_format": "hh-sol-artifact-1",
  "contractName": "zkHangmanFactory",
  "sourceName": "contracts/zkHangmanFactory.sol",
  "abi": [
    {
      "anonymous": false,
      "inputs": [
        {
          "indexed": true,
          "internalType": "address",
          "name": "host",
          "type": "address"
        },
        {
          "indexed": true,
          "internalType": "address",
          "name": "player",
          "type": "address"
        },
        {
          "indexed": false,
          "internalType": "address",
          "name": "gameAddress",
          "type": "address"
        },
        {
          "indexed": false,
          "internalType": "address",
          "name": "initVerifier",
          "type": "address"
        },
        {
          "indexed": false,
          "internalType": "address",
          "name": "guessVerifier",
          "type": "address"
        }
      ],
      "name": "GameCreated",
      "type": "event"
    },
    {
      "inputs": [
        {
          "internalType": "address",
          "name": "_player",
          "type": "address"
        },
        {
          "internalType": "address",
          "name": "_initVerifier",
          "type": "address"
        },
        {
          "internalType": "address",
          "name": "_guessVerifier",
          "type": "address"
        },
        {
          "internalType": "uint256[2]",
          "name": "_a",
          "type": "uint256[2]"
        },
        {
          "internalType": "uint256[2][2]",
          "name": "_b",
          "type": "uint256[2][2]"
        },
        {
          "internalType": "uint256[2]",
          "name": "_c",
          "type": "uint256[2]"
        },
        {
          "internalType": "uint256[26]",
          "name": "_input",
          "type": "uint256[26]"
        },
        {
          "internalType": "uint256",
          "name": "_totalChars",
          "type": "uint256"
        }
      ],
      "name": "createGame",
      "outputs": [],
      "stateMutability": "nonpayable",
      "type": "function"
    },
    {
      "inputs": [
        {
          "internalType": "uint256",
          "name": "",
          "type": "uint256"
        }
      ],
      "name": "games",
      "outputs": [
        {
          "internalType": "address",
          "name": "",
          "type": "address"
        }
      ],
      "stateMutability": "view",
      "type": "function"
    }
  ],
  "bytecode": "0x608060405234801561001057600080fd5b506118f8806100206000396000f3fe60806040523480156200001157600080fd5b50600436106200003a5760003560e01c8063117a5b90146200003f578063a0e5ce591462000072575b600080fd5b6200005662000050366004620003b2565b6200008b565b6040516001600160a01b03909116815260200160405180910390f35b6200008962000083366004620002b6565b620000b6565b005b600081815481106200009c57600080fd5b6000918252602090912001546001600160a01b0316905081565b60008888888888888888604051620000ce90620001a1565b620000e1989796959493929190620003f7565b604051809103906000f080158015620000fe573d6000803e3d6000fd5b50600080546001810182559080527f290decd9548b62a8d60345a988386fc84ba6bc95484008f6362f93160ef3e5630180546001600160a01b0319166001600160a01b03838116918217909255604080519182528b831660208301528a8316908201529192508a169033907f96cda00d0d9a369ced4a0bd9e603cc6a8d2eb4a3f905461f51c6e476c62819a79060600160405180910390a3505050505050505050565b6113d780620004ec83390190565b80356001600160a01b0381168114620001c757600080fd5b919050565b600082601f830112620001de57600080fd5b6040516103408082016001600160401b03811183821017156200021157634e487b7160e01b600052604160045260246000fd5b60405281848281018710156200022657600080fd5b600092505b601a8310156200024d578035825260019290920191602091820191016200022b565b509195945050505050565b600082601f8301126200026a57600080fd5b62000274620004b4565b8083856040860111156200028757600080fd5b60005b6002811015620002ab5781358452602093840193909101906001016200028a565b509095945050505050565b6000806000806000806000806104c0898b031215620002d457600080fd5b620002df89620001af565b9750620002ef60208a01620001af565b9650620002ff60408a01620001af565b9550620003108a60608b0162000258565b94508960bf8a01126200032257600080fd5b6200032c620004b4565b8060a08b016101208c018d8111156200034457600080fd5b60005b600281101562000375576200035d8f8462000258565b85526020909401936040929092019160010162000347565b50829750620003858e8262000258565b9650505050506200039b8a6101608b01620001cc565b91506104a089013590509295985092959890939650565b600060208284031215620003c557600080fd5b5035919050565b8060005b6002811015620003f1578151845260209384019390910190600101620003d0565b50505050565b60006104c08201905060018060a01b03808b1683526020818b16818501526040828b16818601526200042d606086018b620003cc565b60a0850192508860005b60028110156200045f576200044e858351620003cc565b938201939083019060010162000437565b50505062000472610120850188620003cc565b610160840191508560005b601a8110156200049c578151845292820192908201906001016200047d565b50505050826104a08301529998505050505050505050565b604080519081016001600160401b0381118282101715620004e557634e487b7160e01b600052604160045260246000fd5b6040529056fe608060405260066004553480156200001657600080fd5b50604051620013d7380380620013d7833981016040819052620000399162000447565b60028054326001600160a01b0319918216179091556003805482166001600160a01b038b8116919091179091556000805483168a8316179055600180549092169088161790556200008e85858585856200009c565b5050505050505050620006c3565b60095460ff1615620000e85760405162461bcd60e51b815260206004820152601060248201526f3a34329033b0b6b29034b99037bb32b960811b60448201526064015b60405180910390fd5b60075415620001295760405162461bcd60e51b815260206004820152600c60248201526b34b73b30b634b2103a3ab93760a11b6044820152606401620000df565b60005460405163514736cd60e01b81526001600160a01b039091169063514736cd906200016190889088908890889060040162000599565b60206040518083038186803b1580156200017a57600080fd5b505afa1580156200018f573d6000803e3d6000fd5b505050506040513d601f19601f82011682018060405250810190620001b5919062000543565b620001f35760405162461bcd60e51b815260206004820152600d60248201526c34b73b30b634b210383937b7b360991b6044820152606401620000df565b601a8110620002455760405162461bcd60e51b815260206004820152601860248201527f746f74616c206368617273206d757374206265206c65737300000000000000006044820152606401620000df565b8151600555600881905560005b600854811015620002e557600b836200026d8360016200065e565b601a8110620002805762000280620006ad565b6020908102919091015182546001818101855560009485529284200155600c8054918201815590915260637fdf6966c971051c3d54ec59162606531493a51404a002842f56009d7e5cf4a8c79091015580620002dc8162000679565b91505062000252565b5060078054906000620002f88362000679565b91905055507f34d8909b90b3e93f309bd491e3665d7343d6c27e1f746e3c9c345fe7bec47b206007546040516200033191815260200190565b60405180910390a15050505050565b80516001600160a01b03811681146200035857600080fd5b919050565b600082601f8301126200036f57600080fd5b6040516103408082016001600160401b0381118382101715620003a257634e487b7160e01b600052604160045260246000fd5b6040528184828101871015620003b757600080fd5b600092505b601a831015620003de57805182526001929092019160209182019101620003bc565b509195945050505050565b600082601f830112620003fb57600080fd5b6200040562000627565b8083856040860111156200041857600080fd5b60005b60028110156200043c5781518452602093840193909101906001016200041b565b509095945050505050565b6000806000806000806000806104c0898b0312156200046557600080fd5b620004708962000340565b97506200048060208a0162000340565b96506200049060408a0162000340565b9550620004a18a60608b01620003e9565b94508960bf8a0112620004b357600080fd5b620004bd62000627565b8060a08b016101208c018d811115620004d557600080fd5b60005b60028110156200050657620004ee8f84620003e9565b855260209094019360409290920191600101620004d8565b50829750620005168e82620003e9565b9650505050506200052c8a6101608b016200035d565b91506104a089015190509295985092959890939650565b6000602082840312156200055657600080fd5b815180151581146200056757600080fd5b9392505050565b8060005b60028110156200059357815184526020938401939091019060010162000572565b50505050565b6104408101620005aa82876200056e565b60408083018660005b6002811015620005de57620005ca8383516200056e565b9183019160209190910190600101620005b3565b50505050620005f160c08301856200056e565b61010082018360005b601a8110156200061b578151835260209283019290910190600101620005fa565b50505095945050505050565b604080519081016001600160401b03811182821017156200065857634e487b7160e01b600052604160045260246000fd5b60405290565b6000821982111562000674576200067462000697565b500190565b600060001982141562000690576200069062000697565b5060010190565b634e487b7160e01b600052601160045260246000fd5b634e487b7160e01b600052603260045260246000fd5b610d0480620006d36000396000f3fe608060405234801561001057600080fd5b50600436106100d05760003560e01c80631746bd1b146100d55780631f491389146100fc57806325d4d1c11461011d57806345a28e6b1461013257806348db5f8914610145578063742aa731146101705780637b5904ad146101795780637bb43c6d1461018c57806384eed0351461019f5780638b299903146101a85780638e88610b146101b1578063bdb337d1146101ba578063c6efa1f2146101d7578063d29e6803146101ea578063f437bc59146101f3578063fb40b49914610206575b600080fd5b6100dd610219565b6040516100f39a99989796959493929190610a45565b60405180910390f35b61010f61010a3660046109c8565b61034a565b6040519081526020016100f3565b61013061012b3660046108ae565b61036b565b005b6101306101403660046109c8565b610679565b600354610158906001600160a01b031681565b6040516001600160a01b0390911681526020016100f3565b61010f60065481565b61010f6101873660046109c8565b610836565b61010f61019a3660046109c8565b610846565b61010f60045481565b61010f60075481565b61010f60085481565b6009546101c79060ff1681565b60405190151581526020016100f3565b600054610158906001600160a01b031681565b61010f60055481565b600254610158906001600160a01b031681565b600154610158906001600160a01b031681565b600254600354600454600954600654600754600854600a8054604080516020808402820181019092528281526001600160a01b039a8b169a9099169860ff909716966060938493849383018282801561029157602002820191906000526020600020905b81548152602001906001019080831161027d575b50505050509250600b8054806020026020016040519081016040528092919081815260200182805480156102e457602002820191906000526020600020905b8154815260200190600101908083116102d0575b50505050509150600c80548060200260200160405190810160405280929190818152602001828054801561033757602002820191906000526020600020905b815481526020019060010190808311610323575b5050505050905090919293949596979899565b600a818154811061035a57600080fd5b600091825260209091200154905081565b60095460ff16156103975760405162461bcd60e51b815260040161038e90610b78565b60405180910390fd5b6002546001600160a01b031633146103c15760405162461bcd60e51b815260040161038e90610b50565b600754158015906103de575060026007546103dc9190610c60565b155b6103fa5760405162461bcd60e51b815260040161038e90610ba2565b600a805461040a90600190610c2e565b8154811061041a5761041a610c98565b60009182526020909120015460408201511461046c5760405162461bcd60e51b815260206004820152601160248201527034b73b30b634b21031b430b930b1ba32b960791b604482015260640161038e565b6005548151146104af5760405162461bcd60e51b815260206004820152600e60248201526d1a5b9d985b1a59081cd958dc995d60921b604482015260640161038e565b6001546040516308a3cff560e11b81526001600160a01b03909116906311479fea906104e5908790879087908790600401610acc565b60206040518083038186803b1580156104fd57600080fd5b505afa158015610511573d6000803e3d6000fd5b505050506040513d601f19601f82011682018060405250810190610535919061099f565b6105715760405162461bcd60e51b815260206004820152600d60248201526c34b73b30b634b210383937b7b360991b604482015260640161038e565b600160005b600b548110156105fa57600b818154811061059357610593610c98565b600091825260209182902001549084015114156105e8576040830151600c8054839081106105c3576105c3610c98565b600091825260208220019190915560068054919350836105e283610c45565b91905055505b806105f281610c45565b915050610576565b50801561061a576001600460008282546106149190610c2e565b90915550505b600b546006541415610634576009805460ff191660011790555b6007805490600061064483610c45565b9190505550600080516020610caf83398151915260075460405161066a91815260200190565b60405180910390a15050505050565b60095460ff161561069c5760405162461bcd60e51b815260040161038e90610b78565b6000600454116106ab57600080fd5b6003546001600160a01b031633146106d55760405162461bcd60e51b815260040161038e90610b50565b60026007546106e49190610c60565b6001146107035760405162461bcd60e51b815260040161038e90610ba2565b60198111156107445760405162461bcd60e51b815260206004820152600d60248201526c696e76616c696420677565737360981b604482015260640161038e565b60005b600a548110156107c25781600a828154811061076557610765610c98565b906000526020600020015414156107b05760405162461bcd60e51b815260206004820152600f60248201526e185b1c9958591e4819dd595cdcd959608a1b604482015260640161038e565b806107ba81610c45565b915050610747565b50600a805460018101825560009182527fc65a7bb8d6351c1cf70c95a316cc6a92839c986682d98bc35f958f4883f9d2a801829055600780549161080583610c45565b9190505550600080516020610caf83398151915260075460405161082b91815260200190565b60405180910390a150565b600c818154811061035a57600080fd5b600b818154811061035a57600080fd5b600082601f83011261086757600080fd5b61086f610bc8565b80838560408601111561088157600080fd5b60005b60028110156108a3578135845260209384019390910190600101610884565b509095945050505050565b6000806000806101608086880312156108c657600080fd5b6108d08787610856565b9450604087605f8801126108e357600080fd5b6108eb610bc8565b8082890160c08a018b81111561090057600080fd5b60005b600281101561092a576109168d84610856565b855260209094019391850191600101610903565b508298506109388c82610856565b975050505050508661011f87011261094f57600080fd5b610957610bfe565b80610100880189848a01111561096c57600080fd5b600093505b600384101561099157803583526001939093019260209283019201610971565b509598949750929550505050565b6000602082840312156109b157600080fd5b815180151581146109c157600080fd5b9392505050565b6000602082840312156109da57600080fd5b5035919050565b8060005b6002811015610a045781518452602093840193909101906001016109e5565b50505050565b600081518084526020808501945080840160005b83811015610a3a57815187529582019590820190600101610a1e565b509495945050505050565b600061014060018060a01b03808e168452808d166020850152508a604084015289151560608401528860808401528760a08401528660c08401528060e0840152610a9181840187610a0a565b9050828103610100840152610aa68186610a0a565b9050828103610120840152610abb8185610a0a565b9d9c50505050505050505050505050565b6101608101610adb82876109e1565b60408083018660005b6002811015610b0b57610af88383516109e1565b9183019160209190910190600101610ae4565b50505050610b1c60c08301856109e1565b61010082018360005b6003811015610b44578151835260209283019290910190600101610b25565b50505095945050505050565b6020808252600e908201526d34b73b30b634b21031b0b63632b960911b604082015260600190565b60208082526010908201526f3a34329033b0b6b29034b99037bb32b960811b604082015260600190565b6020808252600c908201526b34b73b30b634b2103a3ab93760a11b604082015260600190565b604080519081016001600160401b0381118282101715610bf857634e487b7160e01b600052604160045260246000fd5b60405290565b604051606081016001600160401b0381118282101715610bf857634e487b7160e01b600052604160045260246000fd5b600082821015610c4057610c40610c82565b500390565b6000600019821415610c5957610c59610c82565b5060010190565b600082610c7d57634e487b7160e01b600052601260045260246000fd5b500690565b634e487b7160e01b600052601160045260246000fd5b634e487b7160e01b600052603260045260246000fdfe34d8909b90b3e93f309bd491e3665d7343d6c27e1f746e3c9c345fe7bec47b20a2646970667358221220edbf3363632226396c41a88440e0672e1000bad38713f86166b25f611b70967b64736f6c63430008070033a2646970667358221220193d67d2dd8ec6b2533f6ce87e9e4c997418cabd864585c5ee0ee7536951429664736f6c63430008070033",
  "linkReferences": {},
  "deployedLinkReferences": {}
}