{
  "_format": "hh-sol-artifact-1",
  "contractName": "zkHangman",
  "sourceName": "contracts/zkHangman.sol",
  "abi": [
    {
      "inputs": [
        {
          "internalType": "address",
          "name": "_host",
          "type": "address"
        },
        {
          "internalType": "address",
          "name": "_player",
          "type": "address"
        },
        {
          "internalType": "address",
          "name": "_initVerifier",
          "type": "address"
        },
        {
          "internalType": "address",
          "name": "_guessVerifier",
          "type": "address"
        }
      ],
      "stateMutability": "nonpayable",
      "type": "constructor"
    },
    {
      "anonymous": false,
      "inputs": [
        {
          "indexed": false,
          "internalType": "uint256",
          "name": "nextTurn",
          "type": "uint256"
        }
      ],
      "name": "NextTurn",
      "type": "event"
    },
    {
      "inputs": [
        {
          "internalType": "uint256",
          "name": "",
          "type": "uint256"
        }
      ],
      "name": "characterHashes",
      "outputs": [
        {
          "internalType": "uint256",
          "name": "",
          "type": "uint256"
        }
      ],
      "stateMutability": "view",
      "type": "function"
    },
    {
      "inputs": [],
      "name": "correctGuesses",
      "outputs": [
        {
          "internalType": "uint256",
          "name": "",
          "type": "uint256"
        }
      ],
      "stateMutability": "view",
      "type": "function"
    },
    {
      "inputs": [],
      "name": "gameOver",
      "outputs": [
        {
          "internalType": "bool",
          "name": "",
          "type": "bool"
        }
      ],
      "stateMutability": "view",
      "type": "function"
    },
    {
      "inputs": [],
      "name": "guessVerifier",
      "outputs": [
        {
          "internalType": "contract GuessVerifier",
          "name": "",
          "type": "address"
        }
      ],
      "stateMutability": "view",
      "type": "function"
    },
    {
      "inputs": [
        {
          "internalType": "uint256",
          "name": "",
          "type": "uint256"
        }
      ],
      "name": "guesses",
      "outputs": [
        {
          "internalType": "uint256",
          "name": "",
          "type": "uint256"
        }
      ],
      "stateMutability": "view",
      "type": "function"
    },
    {
      "inputs": [],
      "name": "host",
      "outputs": [
        {
          "internalType": "address",
          "name": "",
          "type": "address"
        }
      ],
      "stateMutability": "view",
      "type": "function"
    },
    {
      "inputs": [],
      "name": "initVerifier",
      "outputs": [
        {
          "internalType": "contract InitVerifier",
          "name": "",
          "type": "address"
        }
      ],
      "stateMutability": "view",
      "type": "function"
    },
    {
      "inputs": [
        {
          "internalType": "uint256[2]",
          "name": "_a",
          "type": "uint256[2]"
        },
        {
          "internalType": "uint256[2][2]",
          "name": "_b",
          "type": "uint256[2][2]"
        },
        {
          "internalType": "uint256[2]",
          "name": "_c",
          "type": "uint256[2]"
        },
        {
          "internalType": "uint256[26]",
          "name": "_input",
          "type": "uint256[26]"
        },
        {
          "internalType": "uint256",
          "name": "_totalChars",
          "type": "uint256"
        }
      ],
      "name": "initializeGame",
      "outputs": [],
      "stateMutability": "nonpayable",
      "type": "function"
    },
    {
      "inputs": [],
      "name": "player",
      "outputs": [
        {
          "internalType": "address",
          "name": "",
          "type": "address"
        }
      ],
      "stateMutability": "view",
      "type": "function"
    },
    {
      "inputs": [
        {
          "internalType": "uint256",
          "name": "_guess",
          "type": "uint256"
        }
      ],
      "name": "playerGuess",
      "outputs": [],
      "stateMutability": "nonpayable",
      "type": "function"
    },
    {
      "inputs": [],
      "name": "playerLives",
      "outputs": [
        {
          "internalType": "uint256",
          "name": "",
          "type": "uint256"
        }
      ],
      "stateMutability": "view",
      "type": "function"
    },
    {
      "inputs": [
        {
          "internalType": "uint256[2]",
          "name": "_a",
          "type": "uint256[2]"
        },
        {
          "internalType": "uint256[2][2]",
          "name": "_b",
          "type": "uint256[2][2]"
        },
        {
          "internalType": "uint256[2]",
          "name": "_c",
          "type": "uint256[2]"
        },
        {
          "internalType": "uint256[3]",
          "name": "_input",
          "type": "uint256[3]"
        }
      ],
      "name": "processGuess",
      "outputs": [],
      "stateMutability": "nonpayable",
      "type": "function"
    },
    {
      "inputs": [
        {
          "internalType": "uint256",
          "name": "",
          "type": "uint256"
        }
      ],
      "name": "revealedChars",
      "outputs": [
        {
          "internalType": "uint256",
          "name": "",
          "type": "uint256"
        }
      ],
      "stateMutability": "view",
      "type": "function"
    },
    {
      "inputs": [],
      "name": "secretHash",
      "outputs": [
        {
          "internalType": "uint256",
          "name": "",
          "type": "uint256"
        }
      ],
      "stateMutability": "view",
      "type": "function"
    },
    {
      "inputs": [],
      "name": "totalChars",
      "outputs": [
        {
          "internalType": "uint256",
          "name": "",
          "type": "uint256"
        }
      ],
      "stateMutability": "view",
      "type": "function"
    },
    {
      "inputs": [],
      "name": "turn",
      "outputs": [
        {
          "internalType": "uint256",
          "name": "",
          "type": "uint256"
        }
      ],
      "stateMutability": "view",
      "type": "function"
    }
  ],
  "bytecode": "0x6080604052600660045534801561001557600080fd5b50604051610f4f380380610f4f833981016040819052610034916100a3565b600280546001600160a01b039586166001600160a01b03199182161790915560038054948616948216949094179093556000805492851692841692909217909155600180549190931691161790556100f7565b80516001600160a01b038116811461009e57600080fd5b919050565b600080600080608085870312156100b957600080fd5b6100c285610087565b93506100d060208601610087565b92506100de60408601610087565b91506100ec60608601610087565b905092959194509250565b610e49806101066000396000f3fe608060405234801561001057600080fd5b50600436106100d05760003560e01c80631f491389146100d557806325d4d1c1146100fb57806345a28e6b1461011057806348db5f8914610123578063742aa7311461014e5780637b257ec6146101575780637b5904ad1461016a5780637bb43c6d1461017d57806384eed035146101905780638b299903146101995780638e88610b146101a2578063bdb337d1146101ab578063c6efa1f2146101c8578063d29e6803146101db578063f437bc59146101e4578063fb40b499146101f7575b600080fd5b6100e86100e3366004610b1b565b61020a565b6040519081526020015b60405180910390f35b61010e610109366004610a50565b61022b565b005b61010e61011e366004610b1b565b610519565b600354610136906001600160a01b031681565b6040516001600160a01b0390911681526020016100f2565b6100e860065481565b61010e6101653660046109a8565b6106d6565b6100e8610178366004610b1b565b6108d8565b6100e861018b366004610b1b565b6108e8565b6100e860045481565b6100e860075481565b6100e860085481565b6009546101b89060ff1681565b60405190151581526020016100f2565b600054610136906001600160a01b031681565b6100e860055481565b600254610136906001600160a01b031681565b600154610136906001600160a01b031681565b600a818154811061021a57600080fd5b600091825260209091200154905081565b60095460ff16156102575760405162461bcd60e51b815260040161024e90610c61565b60405180910390fd5b6002546001600160a01b031633146102815760405162461bcd60e51b815260040161024e90610c39565b6007541580159061029e5750600260075461029c9190610d8f565b155b6102ba5760405162461bcd60e51b815260040161024e90610cb2565b600a80546102ca90600190610d5d565b815481106102da576102da610dc7565b60009182526020909120015460408201511461032c5760405162461bcd60e51b815260206004820152601160248201527034b73b30b634b21031b430b930b1ba32b960791b604482015260640161024e565b60055481511461036f5760405162461bcd60e51b815260206004820152600e60248201526d1a5b9d985b1a59081cd958dc995d60921b604482015260640161024e565b6001546040516308a3cff560e11b81526001600160a01b03909116906311479fea906103a5908790879087908790600401610be8565b60206040518083038186803b1580156103bd57600080fd5b505afa1580156103d1573d6000803e3d6000fd5b505050506040513d601f19601f820116820180604052508101906103f59190610af2565b6104115760405162461bcd60e51b815260040161024e90610c8b565b600160005b600b5481101561049a57600b818154811061043357610433610dc7565b60009182526020918290200154908401511415610488576040830151600c80548390811061046357610463610dc7565b6000918252602082200191909155600680549193508361048283610d74565b91905055505b8061049281610d74565b915050610416565b5080156104ba576001600460008282546104b49190610d5d565b90915550505b600b5460065414156104d4576009805460ff191660011790555b600780549060006104e483610d74565b9190505550600080516020610df483398151915260075460405161050a91815260200190565b60405180910390a15050505050565b60095460ff161561053c5760405162461bcd60e51b815260040161024e90610c61565b60006004541161054b57600080fd5b6003546001600160a01b031633146105755760405162461bcd60e51b815260040161024e90610c39565b60026007546105849190610d8f565b6001146105a35760405162461bcd60e51b815260040161024e90610cb2565b60198111156105e45760405162461bcd60e51b815260206004820152600d60248201526c696e76616c696420677565737360981b604482015260640161024e565b60005b600a548110156106625781600a828154811061060557610605610dc7565b906000526020600020015414156106505760405162461bcd60e51b815260206004820152600f60248201526e185b1c9958591e4819dd595cdcd959608a1b604482015260640161024e565b8061065a81610d74565b9150506105e7565b50600a805460018101825560009182527fc65a7bb8d6351c1cf70c95a316cc6a92839c986682d98bc35f958f4883f9d2a80182905560078054916106a583610d74565b9190505550600080516020610df48339815191526007546040516106cb91815260200190565b60405180910390a150565b60095460ff16156106f95760405162461bcd60e51b815260040161024e90610c61565b6002546001600160a01b031633146107235760405162461bcd60e51b815260040161024e90610c39565b600754156107435760405162461bcd60e51b815260040161024e90610cb2565b60005460405163514736cd60e01b81526001600160a01b039091169063514736cd90610779908890889088908890600401610b8b565b60206040518083038186803b15801561079157600080fd5b505afa1580156107a5573d6000803e3d6000fd5b505050506040513d601f19601f820116820180604052508101906107c99190610af2565b6107e55760405162461bcd60e51b815260040161024e90610c8b565b601a81106108305760405162461bcd60e51b8152602060048201526018602482015277746f74616c206368617273206d757374206265206c65737360401b604482015260640161024e565b8151600555600881905560005b6008548110156108c757600b83610855836001610d45565b601a811061086557610865610dc7565b6020908102919091015182546001818101855560009485529284200155600c8054918201815590915260637fdf6966c971051c3d54ec59162606531493a51404a002842f56009d7e5cf4a8c790910155806108bf81610d74565b91505061083d565b50600780549060006104e483610d74565b600c818154811061021a57600080fd5b600b818154811061021a57600080fd5b600082601f83011261090957600080fd5b610911610cd8565b80838560808601111561092357600080fd5b60005b600281101561095057610939878361095b565b845260209093019260409190910190600101610926565b509095945050505050565b600082601f83011261096c57600080fd5b610974610cd8565b80838560408601111561098657600080fd5b60005b6002811015610950578135845260209384019390910190600101610989565b600080600080600061046086880312156109c157600080fd5b6109cb878761095b565b94506109da87604088016108f8565b93506109e98760c0880161095b565b92508661011f8701126109fb57600080fd5b610a03610d00565b80610100880161044089018a811115610a1b57600080fd5b60005b601a811015610a3d578235855260209485019490920191600101610a1e565b50979a9699509497509535949350505050565b600080600080610160808688031215610a6857600080fd5b610a72878761095b565b9450610a8187604088016108f8565b9350610a908760c0880161095b565b92508661011f870112610aa257600080fd5b610aaa610d23565b80610100880189848a011115610abf57600080fd5b600093505b6003841015610ae457803583526001939093019260209283019201610ac4565b509598949750929550505050565b600060208284031215610b0457600080fd5b81518015158114610b1457600080fd5b9392505050565b600060208284031215610b2d57600080fd5b5035919050565b8060005b6002811015610b6257610b4c848351610b68565b6040939093019260209190910190600101610b38565b50505050565b8060005b6002811015610b62578151845260209384019390910190600101610b6c565b6104408101610b9a8287610b68565b610ba76040830186610b34565b610bb460c0830185610b68565b61010082018360005b601a811015610bdc578151835260209283019290910190600101610bbd565b50505095945050505050565b6101608101610bf78287610b68565b610c046040830186610b34565b610c1160c0830185610b68565b61010082018360005b6003811015610bdc578151835260209283019290910190600101610c1a565b6020808252600e908201526d34b73b30b634b21031b0b63632b960911b604082015260600190565b60208082526010908201526f3a34329033b0b6b29034b99037bb32b960811b604082015260600190565b6020808252600d908201526c34b73b30b634b210383937b7b360991b604082015260600190565b6020808252600c908201526b34b73b30b634b2103a3ab93760a11b604082015260600190565b604080519081016001600160401b0381118282101715610cfa57610cfa610ddd565b60405290565b60405161034081016001600160401b0381118282101715610cfa57610cfa610ddd565b604051606081016001600160401b0381118282101715610cfa57610cfa610ddd565b60008219821115610d5857610d58610db1565b500190565b600082821015610d6f57610d6f610db1565b500390565b6000600019821415610d8857610d88610db1565b5060010190565b600082610dac57634e487b7160e01b600052601260045260246000fd5b500690565b634e487b7160e01b600052601160045260246000fd5b634e487b7160e01b600052603260045260246000fd5b634e487b7160e01b600052604160045260246000fdfe34d8909b90b3e93f309bd491e3665d7343d6c27e1f746e3c9c345fe7bec47b20a2646970667358221220c1ca9f551f2c77faedefcee9c43e7098768fd4492a8b72281298b5acff06e0b864736f6c63430008070033",
  "linkReferences": {},
  "deployedLinkReferences": {}
}