{
  "_format": "hh-sol-artifact-1",
  "contractName": "zkHangman",
  "sourceName": "contracts/zkHangman.sol",
  "abi": [
    {
      "inputs": [
        {
          "internalType": "address",
          "name": "_initVerifier",
          "type": "address"
        },
        {
          "internalType": "address",
          "name": "_guessVerifier",
          "type": "address"
        },
        {
          "internalType": "uint256[2]",
          "name": "_a",
          "type": "uint256[2]"
        },
        {
          "internalType": "uint256[2][2]",
          "name": "_b",
          "type": "uint256[2][2]"
        },
        {
          "internalType": "uint256[2]",
          "name": "_c",
          "type": "uint256[2]"
        },
        {
          "internalType": "uint256[27]",
          "name": "_input",
          "type": "uint256[27]"
        }
      ],
      "stateMutability": "nonpayable",
      "type": "constructor"
    },
    {
      "anonymous": false,
      "inputs": [
        {
          "indexed": false,
          "internalType": "uint256",
          "name": "nextTurn",
          "type": "uint256"
        }
      ],
      "name": "NextTurn",
      "type": "event"
    },
    {
      "inputs": [
        {
          "internalType": "uint256",
          "name": "",
          "type": "uint256"
        }
      ],
      "name": "characterHashes",
      "outputs": [
        {
          "internalType": "uint256",
          "name": "",
          "type": "uint256"
        }
      ],
      "stateMutability": "view",
      "type": "function"
    },
    {
      "inputs": [],
      "name": "correctGuesses",
      "outputs": [
        {
          "internalType": "uint256",
          "name": "",
          "type": "uint256"
        }
      ],
      "stateMutability": "view",
      "type": "function"
    },
    {
      "inputs": [],
      "name": "gameOver",
      "outputs": [
        {
          "internalType": "bool",
          "name": "",
          "type": "bool"
        }
      ],
      "stateMutability": "view",
      "type": "function"
    },
    {
      "inputs": [],
      "name": "getGameInfo",
      "outputs": [
        {
          "internalType": "address",
          "name": "_host",
          "type": "address"
        },
        {
          "internalType": "address",
          "name": "_player",
          "type": "address"
        },
        {
          "internalType": "uint256",
          "name": "_playerLives",
          "type": "uint256"
        },
        {
          "internalType": "bool",
          "name": "_gameOver",
          "type": "bool"
        },
        {
          "internalType": "uint256",
          "name": "_correctGuesses",
          "type": "uint256"
        },
        {
          "internalType": "uint256",
          "name": "_turn",
          "type": "uint256"
        },
        {
          "internalType": "uint256",
          "name": "_totalChars",
          "type": "uint256"
        },
        {
          "internalType": "uint256[]",
          "name": "_guesses",
          "type": "uint256[]"
        },
        {
          "internalType": "uint256[]",
          "name": "_characterHashes",
          "type": "uint256[]"
        },
        {
          "internalType": "uint256[]",
          "name": "_revealedChars",
          "type": "uint256[]"
        }
      ],
      "stateMutability": "view",
      "type": "function"
    },
    {
      "inputs": [],
      "name": "guessVerifier",
      "outputs": [
        {
          "internalType": "contract GuessVerifier",
          "name": "",
          "type": "address"
        }
      ],
      "stateMutability": "view",
      "type": "function"
    },
    {
      "inputs": [
        {
          "internalType": "uint256",
          "name": "",
          "type": "uint256"
        }
      ],
      "name": "guesses",
      "outputs": [
        {
          "internalType": "uint256",
          "name": "",
          "type": "uint256"
        }
      ],
      "stateMutability": "view",
      "type": "function"
    },
    {
      "inputs": [],
      "name": "host",
      "outputs": [
        {
          "internalType": "address",
          "name": "",
          "type": "address"
        }
      ],
      "stateMutability": "view",
      "type": "function"
    },
    {
      "inputs": [],
      "name": "initVerifier",
      "outputs": [
        {
          "internalType": "contract InitVerifier",
          "name": "",
          "type": "address"
        }
      ],
      "stateMutability": "view",
      "type": "function"
    },
    {
      "inputs": [],
      "name": "joinGame",
      "outputs": [],
      "stateMutability": "nonpayable",
      "type": "function"
    },
    {
      "inputs": [],
      "name": "player",
      "outputs": [
        {
          "internalType": "address",
          "name": "",
          "type": "address"
        }
      ],
      "stateMutability": "view",
      "type": "function"
    },
    {
      "inputs": [
        {
          "internalType": "uint256",
          "name": "_guess",
          "type": "uint256"
        }
      ],
      "name": "playerGuess",
      "outputs": [],
      "stateMutability": "nonpayable",
      "type": "function"
    },
    {
      "inputs": [],
      "name": "playerLives",
      "outputs": [
        {
          "internalType": "uint256",
          "name": "",
          "type": "uint256"
        }
      ],
      "stateMutability": "view",
      "type": "function"
    },
    {
      "inputs": [
        {
          "internalType": "uint256[2]",
          "name": "_a",
          "type": "uint256[2]"
        },
        {
          "internalType": "uint256[2][2]",
          "name": "_b",
          "type": "uint256[2][2]"
        },
        {
          "internalType": "uint256[2]",
          "name": "_c",
          "type": "uint256[2]"
        },
        {
          "internalType": "uint256[27]",
          "name": "_input",
          "type": "uint256[27]"
        }
      ],
      "name": "processGuess",
      "outputs": [],
      "stateMutability": "nonpayable",
      "type": "function"
    },
    {
      "inputs": [
        {
          "components": [
            {
              "internalType": "uint256[2]",
              "name": "_a",
              "type": "uint256[2]"
            },
            {
              "internalType": "uint256[2][2]",
              "name": "_b",
              "type": "uint256[2][2]"
            },
            {
              "internalType": "uint256[2]",
              "name": "_c",
              "type": "uint256[2]"
            },
            {
              "internalType": "uint256[27]",
              "name": "_input",
              "type": "uint256[27]"
            }
          ],
          "internalType": "struct zkHangman.ProcessGuessParam[]",
          "name": "params",
          "type": "tuple[]"
        }
      ],
      "name": "reveal",
      "outputs": [],
      "stateMutability": "nonpayable",
      "type": "function"
    },
    {
      "inputs": [
        {
          "internalType": "uint256",
          "name": "",
          "type": "uint256"
        }
      ],
      "name": "revealedChars",
      "outputs": [
        {
          "internalType": "uint256",
          "name": "",
          "type": "uint256"
        }
      ],
      "stateMutability": "view",
      "type": "function"
    },
    {
      "inputs": [],
      "name": "secretHash",
      "outputs": [
        {
          "internalType": "uint256",
          "name": "",
          "type": "uint256"
        }
      ],
      "stateMutability": "view",
      "type": "function"
    },
    {
      "inputs": [],
      "name": "totalChars",
      "outputs": [
        {
          "internalType": "uint256",
          "name": "",
          "type": "uint256"
        }
      ],
      "stateMutability": "view",
      "type": "function"
    },
    {
      "inputs": [],
      "name": "turn",
      "outputs": [
        {
          "internalType": "uint256",
          "name": "",
          "type": "uint256"
        }
      ],
      "stateMutability": "view",
      "type": "function"
    }
  ],
  "bytecode": "0x608060405260066005553480156200001657600080fd5b506040516200192f3803806200192f833981016040819052620000399162000436565b60028054326001600160a01b0319918216179091556000805482166001600160a01b03898116919091179091556001805490921690871617905562000081848484846200008d565b50505050505062000693565b60095460ff1615620000d95760405162461bcd60e51b815260206004820152601060248201526f3a34329033b0b6b29034b99037bb32b960811b60448201526064015b60405180910390fd5b600854156200011a5760405162461bcd60e51b815260206004820152600c60248201526b34b73b30b634b2103a3ab93760a11b6044820152606401620000d0565b600054604051631ab2512d60e11b81526001600160a01b0390911690633564a25a906200015290879087908790879060040162000569565b60206040518083038186803b1580156200016b57600080fd5b505afa15801562000180573d6000803e3d6000fd5b505050506040513d601f19601f82011682018060405250810190620001a6919062000513565b620001e45760405162461bcd60e51b815260206004820152600d60248201526c34b73b30b634b210383937b7b360991b6044820152606401620000d0565b60208101516004819055601b116200023f5760405162461bcd60e51b815260206004820152601860248201527f746f74616c206368617273206d757374206265206c65737300000000000000006044820152606401620000d0565b805160065560005b600454811015620002d557600b82620002628360026200062e565b601b81106200027557620002756200067d565b6020908102919091015182546001818101855560009485529284200155600c8054918201815582527fdf6966c971051c3d54ec59162606531493a51404a002842f56009d7e5cf4a8c7015580620002cc8162000649565b91505062000247565b5060088054906000620002e88362000649565b91905055507f34d8909b90b3e93f309bd491e3665d7343d6c27e1f746e3c9c345fe7bec47b206008546040516200032191815260200190565b60405180910390a150505050565b80516001600160a01b03811681146200034757600080fd5b919050565b600082601f8301126200035e57600080fd5b6040516103608082016001600160401b03811183821017156200039157634e487b7160e01b600052604160045260246000fd5b6040528184828101871015620003a657600080fd5b600092505b601b831015620003cd57805182526001929092019160209182019101620003ab565b509195945050505050565b600082601f830112620003ea57600080fd5b620003f4620005f7565b8083856040860111156200040757600080fd5b60005b60028110156200042b5781518452602093840193909101906001016200040a565b509095945050505050565b6000806000806000806104a087890312156200045157600080fd5b6200045c876200032f565b955060206200046d8189016200032f565b955060406200047f8a828b01620003d8565b955089609f8a01126200049157600080fd5b6200049b620005f7565b8060808b016101008c018d811115620004b357600080fd5b60005b6002811015620004df57620004cc8f84620003d8565b85529386019391850191600101620004b6565b50829850620004ef8e82620003d8565b9750505050505050620005078861014089016200034c565b90509295509295509295565b6000602082840312156200052657600080fd5b815180151581146200053757600080fd5b9392505050565b8060005b60028110156200056357815184526020938401939091019060010162000542565b50505050565b61046081016200057a82876200053e565b60408083018660005b6002811015620005ae576200059a8383516200053e565b918301916020919091019060010162000583565b50505050620005c160c08301856200053e565b61010082018360005b601b811015620005eb578151835260209283019290910190600101620005ca565b50505095945050505050565b604080519081016001600160401b03811182821017156200062857634e487b7160e01b600052604160045260246000fd5b60405290565b6000821982111562000644576200064462000667565b500190565b600060001982141562000660576200066062000667565b5060010190565b634e487b7160e01b600052601160045260246000fd5b634e487b7160e01b600052603260045260246000fd5b61128c80620006a36000396000f3fe608060405234801561001057600080fd5b50600436106100e65760003560e01c80630e822db5146100eb5780631746bd1b146101005780631f4913891461012757806345a28e6b1461014857806348db5f891461015b578063742aa731146101865780637b5904ad1461018f5780637bb43c6d146101a257806384eed035146101b55780638b299903146101be5780638e88610b146101c75780639c795cdc146101d0578063bdb337d1146101e3578063c6efa1f214610200578063d29e680314610213578063d4f77b1c1461021c578063f437bc5914610224578063fb40b49914610237575b600080fd5b6100fe6100f9366004610e3c565b61024a565b005b610108610541565b60405161011e9a99989796959493929190610f3c565b60405180910390f35b61013a610135366004610ebf565b610672565b60405190815260200161011e565b6100fe610156366004610ebf565b610693565b60035461016e906001600160a01b031681565b6040516001600160a01b03909116815260200161011e565b61013a60075481565b61013a61019d366004610ebf565b61084e565b61013a6101b0366004610ebf565b61085e565b61013a60055481565b61013a60085481565b61013a60045481565b6100fe6101de366004610d36565b61086e565b6009546101f09060ff1681565b604051901515815260200161011e565b60005461016e906001600160a01b031681565b61013a60065481565b6100fe610b48565b60025461016e906001600160a01b031681565b60015461016e906001600160a01b031681565b60095460ff16156102765760405162461bcd60e51b815260040161026d9061106f565b60405180910390fd5b6002546001600160a01b031633146102a05760405162461bcd60e51b815260040161026d90611047565b600854158015906102bd575060026008546102bb91906111d2565b155b6102d95760405162461bcd60e51b815260040161026d906110e8565b600a80546102e9906001906111a0565b815481106102f9576102f961120a565b6000918252602090912001546103408201511461034c5760405162461bcd60e51b815260206004820152601160248201527034b73b30b634b21031b430b930b1ba32b960791b604482015260640161026d565b60065481511461036e5760405162461bcd60e51b815260040161026d90611099565b600154604051631ab2512d60e11b81526001600160a01b0390911690633564a25a906103a4908790879087908790600401610fc3565b60206040518083038186803b1580156103bc57600080fd5b505afa1580156103d0573d6000803e3d6000fd5b505050506040513d601f19601f820116820180604052508101906103f49190610e96565b6104105760405162461bcd60e51b815260040161026d906110c1565b600160005b600b548110156104b757600b81815481106104325761043261120a565b90600052602060002001548382600161044b9190611188565b601b811061045b5761045b61120a565b602002015114156104a557610340830151600c8054839081106104805761048061120a565b6000918252602082200191909155600780549193508361049f836111b7565b91905055505b806104af816111b7565b915050610415565b5080156104d7576001600560008282546104d191906111a0565b90915550505b600b5460075414806104e95750600554155b156104fc576009805460ff191660011790555b6008805490600061050c836111b7565b919050555060008051602061123783398151915260085460405161053291815260200190565b60405180910390a15050505050565b600254600354600554600954600754600854600454600a8054604080516020808402820181019092528281526001600160a01b039a8b169a9099169860ff90971696606093849384938301828280156105b957602002820191906000526020600020905b8154815260200190600101908083116105a5575b50505050509250600b80548060200260200160405190810160405280929190818152602001828054801561060c57602002820191906000526020600020905b8154815260200190600101908083116105f8575b50505050509150600c80548060200260200160405190810160405280929190818152602001828054801561065f57602002820191906000526020600020905b81548152602001906001019080831161064b575b5050505050905090919293949596979899565b600a818154811061068257600080fd5b600091825260209091200154905081565b60095460ff16156106b65760405162461bcd60e51b815260040161026d9061106f565b6003546001600160a01b031633146106e05760405162461bcd60e51b815260040161026d90611047565b60026008546106ef91906111d2565b60011461070e5760405162461bcd60e51b815260040161026d906110e8565b600181101580156107205750601a8111155b61075c5760405162461bcd60e51b815260206004820152600d60248201526c696e76616c696420677565737360981b604482015260640161026d565b60005b600a548110156107da5781600a828154811061077d5761077d61120a565b906000526020600020015414156107c85760405162461bcd60e51b815260206004820152600f60248201526e185b1c9958591e4819dd595cdcd959608a1b604482015260640161026d565b806107d2816111b7565b91505061075f565b50600a805460018101825560009182527fc65a7bb8d6351c1cf70c95a316cc6a92839c986682d98bc35f958f4883f9d2a801829055600880549161081d836111b7565b919050555060008051602061123783398151915260085460405161084391815260200190565b60405180910390a150565b600c818154811061068257600080fd5b600b818154811061068257600080fd5b60095460ff166108b45760405162461bcd60e51b815260206004820152601160248201527033b0b6b29036bab9ba1031329037bb32b960791b604482015260640161026d565b6002546001600160a01b031633146108de5760405162461bcd60e51b815260040161026d90611047565b60005b8151811015610b44576006548282815181106108ff576108ff61120a565b6020026020010151606001516000601b811061091d5761091d61120a565b60200201511461093f5760405162461bcd60e51b815260040161026d90611099565b60015482516001600160a01b0390911690633564a25a908490849081106109685761096861120a565b6020026020010151600001518484815181106109865761098661120a565b6020026020010151602001518585815181106109a4576109a461120a565b6020026020010151604001518686815181106109c2576109c261120a565b6020026020010151606001516040518563ffffffff1660e01b81526004016109ed9493929190610fc3565b60206040518083038186803b158015610a0557600080fd5b505afa158015610a19573d6000803e3d6000fd5b505050506040513d601f19601f82011682018060405250810190610a3d9190610e96565b610a595760405162461bcd60e51b815260040161026d906110c1565b60005b600b54811015610b3157600b8181548110610a7957610a7961120a565b9060005260206000200154838381518110610a9657610a9661120a565b602002602001015160600151826001610aaf9190611188565b601b8110610abf57610abf61120a565b60200201511415610b1f57828281518110610adc57610adc61120a565b602002602001015160600151601a601b8110610afa57610afa61120a565b6020020151600c8281548110610b1257610b1261120a565b6000918252602090912001555b80610b29816111b7565b915050610a5c565b5080610b3c816111b7565b9150506108e1565b5050565b6002546001600160a01b0316331415610b945760405162461bcd60e51b815260206004820152600e60248201526d34b73b30b634b210383630bcb2b960911b604482015260640161026d565b6003546001600160a01b031615610bf95760405162461bcd60e51b815260206004820152602360248201527f736f6d656f6e652068617320616c7265616479206a6f696e6564207468652067604482015262616d6560e81b606482015260840161026d565b600380546001600160a01b03191633179055565b600082601f830112610c1e57600080fd5b610c26611136565b808385608086011115610c3857600080fd5b60005b6002811015610c6557610c4e8783610ce9565b845260209093019260409190910190600101610c3b565b509095945050505050565b600082601f830112610c8157600080fd5b6040516103608082016001600160401b0381118382101715610ca557610ca5611220565b6040528184828101871015610cb957600080fd5b600092505b601b831015610cde57803582526001929092019160209182019101610cbe565b509195945050505050565b600082601f830112610cfa57600080fd5b610d02611136565b808385604086011115610d1457600080fd5b60005b6002811015610c65578135845260209384019390910190600101610d17565b60006020808385031215610d4957600080fd5b82356001600160401b0380821115610d6057600080fd5b818501915085601f830112610d7457600080fd5b813581811115610d8657610d86611220565b610d94848260051b01611158565b8181528481019250838501610460808402860187018a1015610db557600080fd5b60009550855b84811015610e2d5781838c031215610dd1578687fd5b610dd961110e565b610de38c85610ce9565b81526040610df38d828701610c0d565b8a830152610e048d60c08701610ce9565b90820152610e168c6101008601610c70565b606082015286529487019491810191600101610dbb565b50919998505050505050505050565b6000806000806104608587031215610e5357600080fd5b610e5d8686610ce9565b9350610e6c8660408701610c0d565b9250610e7b8660c08701610ce9565b9150610e8b866101008701610c70565b905092959194509250565b600060208284031215610ea857600080fd5b81518015158114610eb857600080fd5b9392505050565b600060208284031215610ed157600080fd5b5035919050565b8060005b6002811015610efb578151845260209384019390910190600101610edc565b50505050565b600081518084526020808501945080840160005b83811015610f3157815187529582019590820190600101610f15565b509495945050505050565b600061014060018060a01b03808e168452808d166020850152508a604084015289151560608401528860808401528760a08401528660c08401528060e0840152610f8881840187610f01565b9050828103610100840152610f9d8186610f01565b9050828103610120840152610fb28185610f01565b9d9c50505050505050505050505050565b6104608101610fd28287610ed8565b60408083018660005b600281101561100257610fef838351610ed8565b9183019160209190910190600101610fdb565b5050505061101360c0830185610ed8565b61010082018360005b601b81101561103b57815183526020928301929091019060010161101c565b50505095945050505050565b6020808252600e908201526d34b73b30b634b21031b0b63632b960911b604082015260600190565b60208082526010908201526f3a34329033b0b6b29034b99037bb32b960811b604082015260600190565b6020808252600e908201526d1a5b9d985b1a59081cd958dc995d60921b604082015260600190565b6020808252600d908201526c34b73b30b634b210383937b7b360991b604082015260600190565b6020808252600c908201526b34b73b30b634b2103a3ab93760a11b604082015260600190565b604051608081016001600160401b038111828210171561113057611130611220565b60405290565b604080519081016001600160401b038111828210171561113057611130611220565b604051601f8201601f191681016001600160401b038111828210171561118057611180611220565b604052919050565b6000821982111561119b5761119b6111f4565b500190565b6000828210156111b2576111b26111f4565b500390565b60006000198214156111cb576111cb6111f4565b5060010190565b6000826111ef57634e487b7160e01b600052601260045260246000fd5b500690565b634e487b7160e01b600052601160045260246000fd5b634e487b7160e01b600052603260045260246000fd5b634e487b7160e01b600052604160045260246000fdfe34d8909b90b3e93f309bd491e3665d7343d6c27e1f746e3c9c345fe7bec47b20a2646970667358221220d69cdabaab1144d19fb1fac122c67f87a8d7cdc6ef339fd93f6bad3c6d22476c64736f6c63430008070033",
  "linkReferences": {},
  "deployedLinkReferences": {}
}