{
  "_format": "hh-sol-artifact-1",
  "contractName": "zkHangman",
  "sourceName": "contracts/zkHangman.sol",
  "abi": [
    {
      "inputs": [
        {
          "internalType": "address",
          "name": "_initVerifier",
          "type": "address"
        },
        {
          "internalType": "address",
          "name": "_guessVerifier",
          "type": "address"
        },
        {
          "internalType": "uint256[2]",
          "name": "_a",
          "type": "uint256[2]"
        },
        {
          "internalType": "uint256[2][2]",
          "name": "_b",
          "type": "uint256[2][2]"
        },
        {
          "internalType": "uint256[2]",
          "name": "_c",
          "type": "uint256[2]"
        },
        {
          "internalType": "uint256[27]",
          "name": "_input",
          "type": "uint256[27]"
        }
      ],
      "stateMutability": "nonpayable",
      "type": "constructor"
    },
    {
      "anonymous": false,
      "inputs": [
        {
          "indexed": false,
          "internalType": "uint256",
          "name": "nextTurn",
          "type": "uint256"
        }
      ],
      "name": "NextTurn",
      "type": "event"
    },
    {
      "inputs": [
        {
          "internalType": "uint256",
          "name": "",
          "type": "uint256"
        }
      ],
      "name": "characterHashes",
      "outputs": [
        {
          "internalType": "uint256",
          "name": "",
          "type": "uint256"
        }
      ],
      "stateMutability": "view",
      "type": "function"
    },
    {
      "inputs": [],
      "name": "correctGuesses",
      "outputs": [
        {
          "internalType": "uint256",
          "name": "",
          "type": "uint256"
        }
      ],
      "stateMutability": "view",
      "type": "function"
    },
    {
      "inputs": [],
      "name": "gameOver",
      "outputs": [
        {
          "internalType": "bool",
          "name": "",
          "type": "bool"
        }
      ],
      "stateMutability": "view",
      "type": "function"
    },
    {
      "inputs": [],
      "name": "getGameInfo",
      "outputs": [
        {
          "internalType": "address",
          "name": "_host",
          "type": "address"
        },
        {
          "internalType": "address",
          "name": "_player",
          "type": "address"
        },
        {
          "internalType": "uint256",
          "name": "_playerLives",
          "type": "uint256"
        },
        {
          "internalType": "bool",
          "name": "_gameOver",
          "type": "bool"
        },
        {
          "internalType": "uint256",
          "name": "_correctGuesses",
          "type": "uint256"
        },
        {
          "internalType": "uint256",
          "name": "_turn",
          "type": "uint256"
        },
        {
          "internalType": "uint256",
          "name": "_totalChars",
          "type": "uint256"
        },
        {
          "internalType": "uint256[]",
          "name": "_guesses",
          "type": "uint256[]"
        },
        {
          "internalType": "uint256[]",
          "name": "_characterHashes",
          "type": "uint256[]"
        },
        {
          "internalType": "uint256[]",
          "name": "_revealedChars",
          "type": "uint256[]"
        }
      ],
      "stateMutability": "view",
      "type": "function"
    },
    {
      "inputs": [],
      "name": "guessVerifier",
      "outputs": [
        {
          "internalType": "contract GuessVerifier",
          "name": "",
          "type": "address"
        }
      ],
      "stateMutability": "view",
      "type": "function"
    },
    {
      "inputs": [
        {
          "internalType": "uint256",
          "name": "",
          "type": "uint256"
        }
      ],
      "name": "guesses",
      "outputs": [
        {
          "internalType": "uint256",
          "name": "",
          "type": "uint256"
        }
      ],
      "stateMutability": "view",
      "type": "function"
    },
    {
      "inputs": [],
      "name": "host",
      "outputs": [
        {
          "internalType": "address",
          "name": "",
          "type": "address"
        }
      ],
      "stateMutability": "view",
      "type": "function"
    },
    {
      "inputs": [],
      "name": "initVerifier",
      "outputs": [
        {
          "internalType": "contract InitVerifier",
          "name": "",
          "type": "address"
        }
      ],
      "stateMutability": "view",
      "type": "function"
    },
    {
      "inputs": [],
      "name": "joinGame",
      "outputs": [],
      "stateMutability": "nonpayable",
      "type": "function"
    },
    {
      "inputs": [],
      "name": "player",
      "outputs": [
        {
          "internalType": "address",
          "name": "",
          "type": "address"
        }
      ],
      "stateMutability": "view",
      "type": "function"
    },
    {
      "inputs": [
        {
          "internalType": "uint256",
          "name": "_guess",
          "type": "uint256"
        }
      ],
      "name": "playerGuess",
      "outputs": [],
      "stateMutability": "nonpayable",
      "type": "function"
    },
    {
      "inputs": [],
      "name": "playerLives",
      "outputs": [
        {
          "internalType": "uint256",
          "name": "",
          "type": "uint256"
        }
      ],
      "stateMutability": "view",
      "type": "function"
    },
    {
      "inputs": [
        {
          "internalType": "uint256[2]",
          "name": "_a",
          "type": "uint256[2]"
        },
        {
          "internalType": "uint256[2][2]",
          "name": "_b",
          "type": "uint256[2][2]"
        },
        {
          "internalType": "uint256[2]",
          "name": "_c",
          "type": "uint256[2]"
        },
        {
          "internalType": "uint256[27]",
          "name": "_input",
          "type": "uint256[27]"
        }
      ],
      "name": "processGuess",
      "outputs": [],
      "stateMutability": "nonpayable",
      "type": "function"
    },
    {
      "inputs": [
        {
          "internalType": "uint256",
          "name": "",
          "type": "uint256"
        }
      ],
      "name": "revealedChars",
      "outputs": [
        {
          "internalType": "uint256",
          "name": "",
          "type": "uint256"
        }
      ],
      "stateMutability": "view",
      "type": "function"
    },
    {
      "inputs": [],
      "name": "secretHash",
      "outputs": [
        {
          "internalType": "uint256",
          "name": "",
          "type": "uint256"
        }
      ],
      "stateMutability": "view",
      "type": "function"
    },
    {
      "inputs": [],
      "name": "totalChars",
      "outputs": [
        {
          "internalType": "uint256",
          "name": "",
          "type": "uint256"
        }
      ],
      "stateMutability": "view",
      "type": "function"
    },
    {
      "inputs": [],
      "name": "turn",
      "outputs": [
        {
          "internalType": "uint256",
          "name": "",
          "type": "uint256"
        }
      ],
      "stateMutability": "view",
      "type": "function"
    }
  ],
  "bytecode": "0x608060405260066004553480156200001657600080fd5b50604051620014c0380380620014c0833981016040819052620000399162000436565b60028054326001600160a01b0319918216179091556000805482166001600160a01b03898116919091179091556001805490921690871617905562000081848484846200008d565b50505050505062000693565b60095460ff1615620000d95760405162461bcd60e51b815260206004820152601060248201526f3a34329033b0b6b29034b99037bb32b960811b60448201526064015b60405180910390fd5b600754156200011a5760405162461bcd60e51b815260206004820152600c60248201526b34b73b30b634b2103a3ab93760a11b6044820152606401620000d0565b600054604051631ab2512d60e11b81526001600160a01b0390911690633564a25a906200015290879087908790879060040162000569565b60206040518083038186803b1580156200016b57600080fd5b505afa15801562000180573d6000803e3d6000fd5b505050506040513d601f19601f82011682018060405250810190620001a6919062000513565b620001e45760405162461bcd60e51b815260206004820152600d60248201526c34b73b30b634b210383937b7b360991b6044820152606401620000d0565b60208101516008819055601b116200023f5760405162461bcd60e51b815260206004820152601860248201527f746f74616c206368617273206d757374206265206c65737300000000000000006044820152606401620000d0565b805160055560005b600854811015620002d557600b82620002628360026200062e565b601b81106200027557620002756200067d565b6020908102919091015182546001818101855560009485529284200155600c8054918201815582527fdf6966c971051c3d54ec59162606531493a51404a002842f56009d7e5cf4a8c7015580620002cc8162000649565b91505062000247565b5060078054906000620002e88362000649565b91905055507f34d8909b90b3e93f309bd491e3665d7343d6c27e1f746e3c9c345fe7bec47b206007546040516200032191815260200190565b60405180910390a150505050565b80516001600160a01b03811681146200034757600080fd5b919050565b600082601f8301126200035e57600080fd5b6040516103608082016001600160401b03811183821017156200039157634e487b7160e01b600052604160045260246000fd5b6040528184828101871015620003a657600080fd5b600092505b601b831015620003cd57805182526001929092019160209182019101620003ab565b509195945050505050565b600082601f830112620003ea57600080fd5b620003f4620005f7565b8083856040860111156200040757600080fd5b60005b60028110156200042b5781518452602093840193909101906001016200040a565b509095945050505050565b6000806000806000806104a087890312156200045157600080fd5b6200045c876200032f565b955060206200046d8189016200032f565b955060406200047f8a828b01620003d8565b955089609f8a01126200049157600080fd5b6200049b620005f7565b8060808b016101008c018d811115620004b357600080fd5b60005b6002811015620004df57620004cc8f84620003d8565b85529386019391850191600101620004b6565b50829850620004ef8e82620003d8565b9750505050505050620005078861014089016200034c565b90509295509295509295565b6000602082840312156200052657600080fd5b815180151581146200053757600080fd5b9392505050565b8060005b60028110156200056357815184526020938401939091019060010162000542565b50505050565b61046081016200057a82876200053e565b60408083018660005b6002811015620005ae576200059a8383516200053e565b918301916020919091019060010162000583565b50505050620005c160c08301856200053e565b61010082018360005b601b811015620005eb578151835260209283019290910190600101620005ca565b50505095945050505050565b604080519081016001600160401b03811182821017156200062857634e487b7160e01b600052604160045260246000fd5b60405290565b6000821982111562000644576200064462000667565b500190565b600060001982141562000660576200066062000667565b5060010190565b634e487b7160e01b600052601160045260246000fd5b634e487b7160e01b600052603260045260246000fd5b610e1d80620006a36000396000f3fe608060405234801561001057600080fd5b50600436106100db5760003560e01c80630e822db5146100e05780631746bd1b146100f55780631f4913891461011c57806345a28e6b1461013d57806348db5f8914610150578063742aa7311461017b5780637b5904ad146101845780637bb43c6d1461019757806384eed035146101aa5780638b299903146101b35780638e88610b146101bc578063bdb337d1146101c5578063c6efa1f2146101e2578063d29e6803146101f5578063d4f77b1c146101fe578063f437bc5914610206578063fb40b49914610219575b600080fd5b6100f36100ee3660046109ae565b61022c565b005b6100fd610564565b6040516101139a99989796959493929190610b45565b60405180910390f35b61012f61012a366004610ac8565b610695565b604051908152602001610113565b6100f361014b366004610ac8565b6106b6565b600354610163906001600160a01b031681565b6040516001600160a01b039091168152602001610113565b61012f60065481565b61012f610192366004610ac8565b610871565b61012f6101a5366004610ac8565b610881565b61012f60045481565b61012f60075481565b61012f60085481565b6009546101d29060ff1681565b6040519015158152602001610113565b600054610163906001600160a01b031681565b61012f60055481565b6100f3610891565b600254610163906001600160a01b031681565b600154610163906001600160a01b031681565b60095460ff16156102585760405162461bcd60e51b815260040161024f90610c78565b60405180910390fd5b6002546001600160a01b031633146102825760405162461bcd60e51b815260040161024f90610c50565b6007541580159061029f5750600260075461029d9190610d79565b155b6102bb5760405162461bcd60e51b815260040161024f90610ca2565b600a80546102cb90600190610d47565b815481106102db576102db610db1565b6000918252602090912001546103408201511461032e5760405162461bcd60e51b815260206004820152601160248201527034b73b30b634b21031b430b930b1ba32b960791b604482015260640161024f565b6005548151146103715760405162461bcd60e51b815260206004820152600e60248201526d1a5b9d985b1a59081cd958dc995d60921b604482015260640161024f565b600154604051631ab2512d60e11b81526001600160a01b0390911690633564a25a906103a7908790879087908790600401610bcc565b60206040518083038186803b1580156103bf57600080fd5b505afa1580156103d3573d6000803e3d6000fd5b505050506040513d601f19601f820116820180604052508101906103f79190610a9f565b6104335760405162461bcd60e51b815260206004820152600d60248201526c34b73b30b634b210383937b7b360991b604482015260640161024f565b600160005b600b548110156104da57600b818154811061045557610455610db1565b90600052602060002001548382600161046e9190610d2f565b601b811061047e5761047e610db1565b602002015114156104c857610340830151600c8054839081106104a3576104a3610db1565b600091825260208220019190915560068054919350836104c283610d5e565b91905055505b806104d281610d5e565b915050610438565b5080156104fa576001600460008282546104f49190610d47565b90915550505b600b54600654148061050c5750600454155b1561051f576009805460ff191660011790555b6007805490600061052f83610d5e565b9190505550600080516020610dc883398151915260075460405161055591815260200190565b60405180910390a15050505050565b600254600354600454600954600654600754600854600a8054604080516020808402820181019092528281526001600160a01b039a8b169a9099169860ff90971696606093849384938301828280156105dc57602002820191906000526020600020905b8154815260200190600101908083116105c8575b50505050509250600b80548060200260200160405190810160405280929190818152602001828054801561062f57602002820191906000526020600020905b81548152602001906001019080831161061b575b50505050509150600c80548060200260200160405190810160405280929190818152602001828054801561068257602002820191906000526020600020905b81548152602001906001019080831161066e575b5050505050905090919293949596979899565b600a81815481106106a557600080fd5b600091825260209091200154905081565b60095460ff16156106d95760405162461bcd60e51b815260040161024f90610c78565b6003546001600160a01b031633146107035760405162461bcd60e51b815260040161024f90610c50565b60026007546107129190610d79565b6001146107315760405162461bcd60e51b815260040161024f90610ca2565b600181101580156107435750601a8111155b61077f5760405162461bcd60e51b815260206004820152600d60248201526c696e76616c696420677565737360981b604482015260640161024f565b60005b600a548110156107fd5781600a82815481106107a0576107a0610db1565b906000526020600020015414156107eb5760405162461bcd60e51b815260206004820152600f60248201526e185b1c9958591e4819dd595cdcd959608a1b604482015260640161024f565b806107f581610d5e565b915050610782565b50600a805460018101825560009182527fc65a7bb8d6351c1cf70c95a316cc6a92839c986682d98bc35f958f4883f9d2a801829055600780549161084083610d5e565b9190505550600080516020610dc883398151915260075460405161086691815260200190565b60405180910390a150565b600c81815481106106a557600080fd5b600b81815481106106a557600080fd5b6002546001600160a01b03163314156108dd5760405162461bcd60e51b815260206004820152600e60248201526d34b73b30b634b210383630bcb2b960911b604482015260640161024f565b6003546001600160a01b0316156109425760405162461bcd60e51b815260206004820152602360248201527f736f6d656f6e652068617320616c7265616479206a6f696e6564207468652067604482015262616d6560e81b606482015260840161024f565b600380546001600160a01b03191633179055565b600082601f83011261096757600080fd5b61096f610cc8565b80838560408601111561098157600080fd5b60005b60028110156109a3578135845260209384019390910190600101610984565b509095945050505050565b6000806000806104608086880312156109c657600080fd5b6109d08787610956565b9450604087605f8801126109e357600080fd5b6109eb610cc8565b8082890160c08a018b811115610a0057600080fd5b60005b6002811015610a2a57610a168d84610956565b855260209094019391850191600101610a03565b50829850610a388c82610956565b975050505050508661011f870112610a4f57600080fd5b610a57610cfe565b80610100880189848a011115610a6c57600080fd5b600093505b601b841015610a9157803583526001939093019260209283019201610a71565b509598949750929550505050565b600060208284031215610ab157600080fd5b81518015158114610ac157600080fd5b9392505050565b600060208284031215610ada57600080fd5b5035919050565b8060005b6002811015610b04578151845260209384019390910190600101610ae5565b50505050565b600081518084526020808501945080840160005b83811015610b3a57815187529582019590820190600101610b1e565b509495945050505050565b600061014060018060a01b03808e168452808d166020850152508a604084015289151560608401528860808401528760a08401528660c08401528060e0840152610b9181840187610b0a565b9050828103610100840152610ba68186610b0a565b9050828103610120840152610bbb8185610b0a565b9d9c50505050505050505050505050565b6104608101610bdb8287610ae1565b60408083018660005b6002811015610c0b57610bf8838351610ae1565b9183019160209190910190600101610be4565b50505050610c1c60c0830185610ae1565b61010082018360005b601b811015610c44578151835260209283019290910190600101610c25565b50505095945050505050565b6020808252600e908201526d34b73b30b634b21031b0b63632b960911b604082015260600190565b60208082526010908201526f3a34329033b0b6b29034b99037bb32b960811b604082015260600190565b6020808252600c908201526b34b73b30b634b2103a3ab93760a11b604082015260600190565b604080519081016001600160401b0381118282101715610cf857634e487b7160e01b600052604160045260246000fd5b60405290565b60405161036081016001600160401b0381118282101715610cf857634e487b7160e01b600052604160045260246000fd5b60008219821115610d4257610d42610d9b565b500190565b600082821015610d5957610d59610d9b565b500390565b6000600019821415610d7257610d72610d9b565b5060010190565b600082610d9657634e487b7160e01b600052601260045260246000fd5b500690565b634e487b7160e01b600052601160045260246000fd5b634e487b7160e01b600052603260045260246000fdfe34d8909b90b3e93f309bd491e3665d7343d6c27e1f746e3c9c345fe7bec47b20a2646970667358221220008b16941c1613395eabfd203c30aacf46e42db0f1b0d2d159533b378c6c7aae64736f6c63430008070033",
  "linkReferences": {},
  "deployedLinkReferences": {}
}